:10000000F8FF022099010000594D0000114D000039
:10001000114D0000114D0000114D0000114D000068
:10002000114D0000114D0000114D0000594D000010
:10003000594D0000114D0000D5620000D96200004A
:10004000594D0000594D0000594D0000594D000018
:10005000594D0000594D0000594D0000594D000008
:10006000594D0000594D0000594D0000594D0000F8
:10007000594D0000594D0000594D0000594D0000E8
:10008000594D0000594D0000594D0000594D0000D8
:10009000594D0000594D0000594D0000594D0000C8
:1000A000FD490000094A0000594D0000594D00006B
:1000B000594D0000594D0000594D0000594D0000A8
:1000C000594D0000594D0000594D0000594D000098
:1000D000594D0000594D0000594D0000594D000088
:1000E000594D0000594D0000594D0000594D000078
:1000F000594D0000594D0000594D0000594D000068
:10010000594D0000594D0000594D0000594D000057
:10011000594D0000F9550000594D0000594D00009F
:10012000594D0000594D0000594D0000594D000037
:10013000594D0000594D0000594D0000594D000027
:10014000594D0000594D0000594D0000594D000017
:10015000594D0000594D0000594D0000594D000007
:10016000594D0000594D0000154A0000594D00003E
:10017000594D0000594D0000594D0000594D0000E7
:10018000594D0000594D0000594D0000594D0000D7
:10019000594D0000594D0000584B4CF2205210B5FB
:1001A0001A804DF628121A8000BF00BF04F0D8FD57
:1001B000534B4FF030621A60524A9A60524ADA60EA
:1001C000524B4FF470021A60514A136813F4807353
:1001D00004D150490B604FF4A85313604E4B1A786A
:1001E000110703D51A7842F008021A704B4B4C499C
:1001F0002A221A704B4A4C4B8B4204D252F8040FFD
:1002000043F8040BF8E7494B494900228B4202D2DC
:1002100043F8042BFAE74749474A002352F82300E2
:1002200041F823000133662BF8D1444B444A802126
:1002300003F8011B9342FBD1424B3E4A1A60424BEA
:100240008A221A70A3F5805324225A70A0221A70B1
:100250009A799207FCD59A79D406FCD43B4A9379D3
:1002600003F00C03082B394BF9D103221A714622F3
:100270005A719A799006FCD5344A9179334B4906E4
:10028000FBD5334A4FF08271116009215160202261
:100290001A709A7902F00C020C2AFAD12D4B2E4AD0
:1002A0001A602E4B2E4A1A6000225A60072243F829
:1002B000042C2C4AC3F80C2D62B605F04FF8154BF0
:1002C0001B68DA0705D5284804F048FE274B284A62
:1002D0001A60284B1B785B0609D5244C244B2268F6
:1002E0009A4204D1204804F039FE0023236004F030
:1002F0003DFD06F0A1F905F0F7FFFEE70E200540F1
:1003000030800440823F04000100002B88ED00E0B3
:1003100010D0034014D0034002D0074000E0074053
:10032000D413FF1F987B0000F806FF1FD413FF1F94
:10033000381CFF1F0002FF1F0000000000E400E067
:1003400056E400E008ED00E00050064000400640A2
:100350004480044004800440C010050014E000E024
:10036000BFD4010000002020107DEA621CE00340A1
:10037000A5C3945A00F00740FFFFFFFFFFFFFFFFF8
:10038000FFFFFFFFFFFFFFFFFFFFFFFFFFFFFFFF7D
:10039000FFFFFFFFFFFFFFFFFFFFFFFFFFFFFFFF6D
:1003A000FFFFFFFFFFFFFFFFFFFFFFFFFFFFFFFF5D
:1003B000FFFFFFFFFFFFFFFFFFFFFFFFFFFFFFFF4D
:1003C000FFFFFFFFFFFFFFFFFFFFFFFFFFFFFFFF3D
:1003D000FFFFFFFFFFFFFFFFFFFFFFFFFFFFFFFF2D
:1003E000FFFFFFFFFFFFFFFFFFFFFFFFFFFFFFFF1D
:1003F000FFFFFFFFFFFFFFFFFFFFFFFFFFFFFFFF0D
:10040000FFFFFFFFFFFFFFFFFFFFFFFFDEF9FFFF23
:1004100010B5054C237833B9044B13B10448AFF33E
:1004200000800123237010BDD413FF1F00000000C3
:100430009C7B0000084B10B51BB108490848AFF37E
:1004400000800848036803B910BD074B002BFBD0A0
:10045000BDE81040184700BF00000000D813FF1F80
:100460009C7B0000D413FF1F0000000043680B704A
:1004700043681B0A4B70C3888B70C379CB70836849
:100480000B7183681B0A4B7143898B71C37ACB71E3
:10049000082070470B7843604A7843EA02234360A0
:1004A0008A7843EA02434360CA7843EA02634360BE
:1004B0000B7983604A7943EA022383608A7943EAAD
:1004C00002438360CA7943EA02638360082070476D
:1004D00000487047B076000000487047C0760000C2
:1004E000F0B50C460A788280064614F8010F002306
:1004F00042EA0022B2801A4614F8010F98400833ED
:10050000202B42EA0002F7D1971D062F58D901F19E
:10051000050E551D73464C1913F8010F03F8010C15
:10052000A342F9D100234B5518460D44C6F808E004
:1005300015F8014F84400830202843EA0403F7D11E
:10054000381D0344834209D909320A440446013460
:1005500012F8015F02F8015CA342F8D80138CF1805
:100560000024084407F8014C2246F06017F8015BAC
:1005700095400832202A44EA0504F7D1181D0444A6
:10058000A04209D203330B440246013213F8015F43
:1005900003F8015CA242F8D30D1901380844002386
:1005A00005F8013C3061A8786B780A5DED780104AC
:1005B00041EA0323134343EA0563201D7361F0BD41
:1005C000551D01F1050EADE700487047E4760000C7
:1005D00000487047007700000B78F0B403710023E7
:1005E00006460C461D4614F8012F9A400833202B6E
:1005F00045EA0205F7D1681D052801F1040708D96D
:100600002C1D3B460C4413F8012F03F8012C9C428F
:10061000F9D10D4400232B71B760F0BC704700BFC7
:100620000048704724770000004870473877000082
:100630000048704748780000004870475C77000029
:1006400000487047807700000048704798770000A6
:1006500000487047BC77000000487047D077000022
:10066000F0B51A4BD0ED036A1A6890ED067A184976
:10067000D0ED077A174C87680669D0F820E083B080
:10068000BDEEE66A0192019D1B680093124A0D605F
:1006900016EE101ABDEEC76A0098104B206011606C
:1006A00016EE104A0E480F4AC3ED036ABDEEE76A24
:1006B0009F601E6183ED067AC3F820E0C3ED077AE0
:1006C000046082ED006A03B0F0BD00BFBC1AFF1FDA
:1006D000F813FF1F1014FF1FF413FF1F5819FF1FFB
:1006E000F013FF1FD407FF1F406B7047004870478F
:1006F000BC77000000487047D077000090F8F804FD
:10070000704700BF05F05ABC43682DE9F0470B70F5
:1007100043681B0A4B70C3888B70C379CB704368E6
:10072000002B00F085800A4600250426C36853F894
:10073000253013711C0C1F0A1B0E94715771D37155
:1007400043680135AB42344602F1040206F1040667
:10075000ECD804F1080204F1050A04F1060904F1D9
:10076000070804F1090C04F10A0E04F10B05174601
:100770000C3403698B5503691B0A01F80A30438A5C
:1007800001F80930C37C01F808300369F3B101EBCB
:10079000070E75460022836953F822300EF8223086
:1007A0001C0C1E0A1B0EAC706E70EB7003690132DC
:1007B00093423C4605F1040507F10407EBD804F128
:1007C000050C04F1060EE51D3A460834C3698B5446
:1007D000C3691B0A01F80C30C38B01F80E30C37FCC
:1007E0004B55C3690BB30F4680460026D8F824301A
:1007F00053F8260006F0E4FCB10005463A19002340
:1008000025FA03F00833202B02F8010BF8D1D8F8B1
:1008100024300434381959582A4604F05FF9D8F8BE
:100820001C300136B3422C44E0D82046BDE8F087A6
:10083000082217460C240B254FF00A0E4FF0090C26
:100840004FF007084FF006094FF0050A042690E71D
:1008500070B503790B70064680680D4606F0B0FC53
:100860002A460446002324FA03F10833202B02F819
:10087000011FF8D1B168681D224604F02FF9601DF0
:1008800070BD00BFF8B583880B7083881B0A4B705E
:10089000064680680D4606F093FC030E010A020C22
:1008A0006B71A8702A71E97002460446B168A81DF0
:1008B00004F014F9F06806F083FC611D0246294437
:1008C0000634002322FA03F00833202B01F8010F2D
:1008D000F8D104342819F168144404F0FFF83069A1
:1008E00006F06EFC2A190746002327FA03F10833A5
:1008F000202B02F8011BF8D1043428193A4631693B
:1009000004F0ECF8381973692B540544190A1A0CD1
:100910001B0E6970AA70EB700430F8BD08461146D2
:1009200005F0B2BB2DE9F04F0A784B788C7805467C
:1009300042EA0323C8780E4643EA0443696843EA5F
:1009400000648C4283B000F2BA806C60002C00F02E
:10095000BF8005F10809344600274FF00408A1794B
:100960006379227994F807E0E868090441EA0323EF
:10097000134343EA0E63AB6000EB87000422494651
:1009800004F0ACF86B680137BB42424604F1040442
:1009900008F10408E3D802F108074146B94602F11C
:1009A000050E901DD31D02F1090B02F10A0802F198
:1009B0000B0A02F10C04305C16F80E20715C16F87C
:1009C00003E02B69000440EA02220A4342EA0E6275
:1009D0009A4200F292802A614AB305F1140A06EBAA
:1009E00009074FF00008B9787B783A78FC78A86955
:1009F000090441EA0323134343EA04636B6100EBF8
:100A000088000422514604F069F82B6908F10108B6
:100A100043454C4607F1040709F10409E3D804F102
:100A2000050B04F1060804F1070A4F46083416F8CE
:100A3000082016F80B00F35D16F80A70E969120435
:100A400042EA0022134343EA07678F424FD8EF611F
:100A50008FB34FF00009C84605F1200700239E46DA
:100A6000311911F8012B9A400833202B4EEA020E5F
:100A7000F7D1201D8644704509D2E31C3344024659
:100A8000013213F8011F03F8011C7245F8D306EB7D
:100A90000E02431E02F8018C686A33442B6200EB9D
:100AA000890004223946744604F018F8EB6909F10C
:100AB00001094B45D2D8204603B0BDE8F08FA10014
:100AC000E86806F05FF96C60E860002C7FF441AFE5
:100AD0000827B9460C244FF00B0A4FF00A084FF0D4
:100AE000090B072306204FF0050E042163E7B90028
:100AF000686A06F047F96862A9E79100A86901925F
:100B000006F040F9019AA86165E700BF2DE9F041C0
:100B100091F807E00E798B794F7905464FEA0E126E
:100B2000C87802F4FE6236010C4646EA1010190538
:100B300042EA131340F2FF7240EA073001F47001F9
:100B4000934241EA000182B005F10C0705F114005F
:100B500000F0A18140F27E46B3421AB243D94FF071
:100B6000FF4200232EF07F0E134302AE43EA0E63D2
:100B700046F8043D0422314603F0B0FF94F80FC05C
:100B800094F80CE0A37BE07A94F80D804FEA0C1205
:100B900002F4FE624FEA0E1E19054EEA101042EAF8
:100BA000131340F2FF7240EA083001F470019342DF
:100BB00041EA000105F1180000F0648140F27E4E28
:100BC00073451AB21FD8B2F5607F00F39A81B2F56F
:100BD0005A7F40F3A981C2F56072013241F0807101
:100BE000D140002250E1B2F5607F00F36F81B2F591
:100BF0005A7F40F39381C2F56072013241F08071F7
:100C0000D140002249E14FF0FF4200232CF07F0C3D
:100C1000134343EA0C6304223146019303F05EFF61
:100C200094F817C094F814E0A37DE07C94F8158044
:100C30004FEA0C1202F4FE624FEA0E1E19054EEA4C
:100C4000101042EA131340F2FF7240EA083001F438
:100C50007001934241EA000105F11C0000F0098196
:100C600040F27E4E73451AB20FD8B2F5607F00F3A2
:100C70003681B2F55A7F40F35381C2F5607201327A
:100C800041F08071D1400022F5E04FF0FF42002397
:100C90002CF07F0C134343EA0C630422314601938A
:100CA00003F01CFF94F81FC094F81CE0A37FE07EC3
:100CB00094F81D804FEA0C1202F4FE624FEA0E1EF9
:100CC00019054EEA101042EA131340F2FF7240EA8F
:100CD000083001F47001934241EA000105F124005B
:100CE00000F0BE8040F27E4E73451AB20FD8B2F5C6
:100CF000607F00F3FD80B2F55A7F40F31381C2F5A7
:100D00006072013241F08071D1400022AAE04FF0C0
:100D1000FF4200232CF07F0C134343EA0C630422B0
:100D20003146019303F0DAFE94F827C094F824E0EA
:100D300094F8263094F8230094F825804FEA0C129A
:100D400002F4FE624FEA0E1E19054EEA101042EA46
:100D5000131340F2FF7240EA083001F4700193422D
:100D600041EA000105F1280071D040F27E4E734542
:100D70001AB20FD8B2F5607F00F39F80B2F55A7FA8
:100D800040F3CA80C2F56072013241F08071D140F7
:100D900000225EE04FF0FF4200232CF07F0C134353
:100DA00043EA0C6304223146019303F097FE94F862
:100DB0002C2094F82FE094F82E3094F82B0094F81F
:100DC0002DC014014FEA0E1202F4FE62190544EA26
:100DD000101042EA131340F2FF7240EA0C3001F4A3
:100DE0007001934241EA000105F12C0026D040F247
:100DF0007E44A3421AB20ED8B2F5607F54DCB2F53D
:100E00005A7F40F38780C2F56072013241F08071F1
:100E1000D140002214E04FF0FF4200232EF07F0E5D
:100E2000134343EA0E6331460422019303F056FE56
:100E30002B6B384602B0BDE8F04118474FF0FF4237
:100E40006FF07F43994236D04B1C5B08E6E74FF0CA
:100E5000FF426FF07F43994236D04B1C5B089CE702
:100E60004FF0FF426FF07F43994248D04B1C5B0824
:100E700050E74FF0FF426FF07F43994236D04B1C52
:100E80005B0805E74FF0FF426FF07F4399423FD088
:100E90004B1C5B08BAE64FF0FF426FF07F4399426C
:100EA0001BD04B1C5B085DE6A3F56073DA056FF0A1
:100EB0007F439942C8D11D4BB0E7A3F56073DA05B3
:100EC0006FF07F439942C8D1184B66E7A3F5607372
:100ED000DA056FF07F439942E3D1144B42E6A3F564
:100EE0006073DA056FF07F439942C8D10F4BCFE6AC
:100EF000A3F56073DA056FF07F439942B6D10B4BCF
:100F000008E7A3F56073DA056FF07F439942BFD11C
:100F1000064B7BE6002293E700229AE70022BCE71B
:100F20000022A8E700229DE70022ADE7FFFF7F0037
:100F3000F0B5CF790D798B7991F805E006463A0145
:100F4000C87802F4FE622D010C4645EA101019051E
:100F500042EA131340F2FF7240EA0E3001F47001CE
:100F6000934241EA000183B006F1080000F0968147
:100F700040F27E45AB421AB241D94FF0FF42002306
:100F800027F07F07134302AD43EA076345F8043DAA
:100F90000422294603F0A2FD94F80FE0277BA37BEF
:100FA000E07A94F80DC04FEA0E1202F4FE623F019F
:100FB000190547EA101042EA131340F2FF7240EAA3
:100FC0000C3001F47001934241EA000106F10C007B
:100FD00000F05B8140F27E47BB421AB21FD8B2F5E7
:100FE000607F00F39181B2F55A7F40F3A081C2F592
:100FF0006072013241F08071D140002247E1B2F5C8
:10100000607F00F36681B2F55A7F40F38A81C2F5B2
:101010006072013241F08071D140002240E14FF016
:10102000FF4200232EF07F0E134343EA0E63042297
:101030002946019303F052FD94F817E0277DA37D24
:10104000E07C94F815C04FEA0E1202F4FE623F01F4
:10105000190547EA101042EA131340F2FF7240EA02
:101060000C3001F47001934241EA000106F11000D6
:1010700000F0028140F27E47BB421AB20FD8B2F5AF
:10108000607F00F32F81B2F55A7F40F34C81C2F5A7
:101090006072013241F08071D1400022EEE04FF0E9
:1010A000FF4200232EF07F0E134343EA0E63042217
:1010B0002946019303F012FD94F81FE0277FA37FD8
:1010C000E07E94F81DC04FEA0E1202F4FE623F016A
:1010D000190547EA101042EA131340F2FF7240EA82
:1010E0000C3001F47001934241EA000106F118004E
:1010F00000F0B98040F27E47BB421AB20FD8B2F579
:10110000607F00F3F880B2F55A7F40F30E81C2F59C
:101110006072013241F08071D1400022A5E04FF0B1
:10112000FF4200232EF07F0E134343EA0E63042296
:101130002946019303F0D2FC94F827E094F8247038
:1011400094F8263094F8230094F825C04FEA0E1244
:1011500002F4FE623F01190547EA101042EA131338
:1011600040F2FF7240EA0C3001F47001934241EA10
:10117000000106F11C006DD040F27E47BB421AB25E
:101180000FD8B2F5607F00F39B80B2F55A7F40F331
:10119000C680C2F56072013241F08071D1400022F8
:1011A0005AE04FF0FF4200232EF07F0E134343EA34
:1011B0000E6304222946019303F090FC94F82F70EB
:1011C00094F82C0094F82B1094F82E3094F82DE01D
:1011D0003A0102F4FE62000140EA1110190542EAE8
:1011E000131340F2FF7240EA0E3401F4700193428F
:1011F00006F1200041EA040123D040F27E44A342DC
:101200001AB20ED8B2F5607F51DCB2F55A7F40F3C6
:101210008480C2F56072013241F08071D1400022B9
:1012200011E04FF0FF42002327F07F07134343EA0A
:10123000076329460422019303F050FC302003B0D9
:10124000F0BD4FF0FF426FF07F43994236D04B1C08
:101250005B08E9E74FF0FF426FF07F43994236D0D9
:101260004B1C5B08A0E74FF0FF426FF07F439942B1
:1012700048D04B1C5B0855E74FF0FF426FF07F43AF
:10128000994236D04B1C5B080CE74FF0FF426FF0E1
:101290007F4399423FD04B1C5B08C3E64FF0FF42AF
:1012A0006FF07F4399421BD04B1C5B0868E6A3F5A7
:1012B0006073DA056FF07F439942C8D11D4BB3E7E5
:1012C000A3F56073DA056FF07F439942C8D1194BDB
:1012D0006AE7A3F56073DA056FF07F439942E3D1C3
:1012E000144B4DE6A3F56073DA056FF07F43994226
:1012F000C8D1104BD6E6A3F56073DA056FF07F43D3
:101300009942B6D10B4B0DE7A3F56073DA056FF088
:101310007F439942BFD1074B84E6002293E7002226
:101320009AE70022BCE70022A8E700229DE70022FE
:10133000ADE700BFFFFF7F00F0B5CF790D798B7966
:1013400091F805E006463A01C87802F4FE622D01E4
:101350000C4645EA1010190542EA131340F2FF72D9
:1013600040EA0E3001F47001934241EA000183B07B
:1013700006F1040000F0B28040F27E45AB421AB2A2
:1013800040D94FF0FF42002327F07F07134302ADFF
:1013900043EA076345F8043D0422294603F09EFB17
:1013A00094F80FE0277BA37BE07A94F80DC04FEA16
:1013B0000E1202F4FE623F01190547EA101042EADC
:1013C000131340F2FF7240EA0C3001F470019342B3
:1013D00041EA000106F1080077D040F27E47BB42A7
:1013E0001AB21ED8B2F5607F00F39380B2F55A7F2F
:1013F00040F39880C2F56072013241F08071D140B3
:10140000002264E0B2F5607F7ADCB2F55A7F40F3E7
:101410008D80C2F56072013241F08071D1400022AE
:101420005EE04FF0FF4200232EF07F0E134343EAAD
:101430000E6304222946019303F050FBE77D207DD3
:10144000E17CA37D94F815E03A0102F4FE6200010C
:1014500040EA1110190542EA131340F2FF7240EA04
:101460000E3401F47001934206F10C0041EA0401CC
:1014700022D040F27E44A3421AB20DD8B2F5607F6A
:1014800035DCB2F55A7F4FDDC2F56072013241F0B2
:101490008071D140002211E04FF0FF42002327F07D
:1014A0007F07134343EA076329460422019303F0AD
:1014B00015FB182003B0F0BD4FF0FF426FF07F43E3
:1014C00099421BD04B1C5B08E9E74FF0FF426FF0DD
:1014D0007F43994224D04B1C5B08A5E74FF0FF42A5
:1014E0006FF07F43994212D04B1C5B084CE7A3F589
:1014F0006073DA056FF07F439942E3D10C4BCEE77E
:10150000A3F56073DA056FF07F439942ECD1084B85
:101510003AE7A3F56073DA056FF07F439942DAD1B9
:10152000034B81E70022D2E70022C7E70022D7E77A
:10153000FFFF7F00F0B585B02D4B026801932D4968
:10154000039103238DF8083014682B4A944240D14C
:1015500000243822054680F8233280F8242280F8BF
:10156000254280F8264280F8274200F50A7003F0F1
:10157000B5FAFF273D20C223FE26072185F81E026B
:1015800085F8203285F81F4285F82242224685F8E8
:101590001C7285F81D6285F8211205F2212305F2DF
:1015A0005F2001E013F8011F83420A44FAD1D243BD
:1015B0006C6885F860222368104A5B68934205F5E1
:1015C00007700DD1452104F05FFD4FF0FF3005B0ED
:1015D000F0BD01AA0721A0474FF0FF3005B0F0BDD4
:1015E00001464522204698474FF0FF3005B0F0BD38
:1015F0002C760000F4770000CD1D00001D090000CE
:10160000D0ED027A17EE903AC3F3C752FF2AF0B436
:10161000C3F3160300F0FD81002A00F0128102F5E9
:101620006072DC0C44EA02145E01C3F3C707E4B243
:10163000C2F30712F6B2C3F3C723F5EEC07AF1EE98
:1016400010FA4FF0000548BF62F07F024B71CA717B
:10165000CE700F718C710D704D708D70D0ED037A5E
:1016600017EE903AC3F3C752FF2AC3F3160300F0F4
:10167000C581002A00F0038102F56072DC0C44EAA7
:1016800002145E01C3F3C707E4B2C2F30712F6B255
:10169000C3F3C723F5EEC07AF1EE10FA4FF0000560
:1016A00048BF62F07F024B73CA73CE720F738C73A4
:1016B0000D724D728D72D0ED047A17EE903AC3F32D
:1016C000C752FF2AC3F3160300F07781002A00F007
:1016D0004D8102F56072DC0C44EA02145E01C3F332
:1016E000C707E4B2C2F30712F6B2C3F3C723F5EE9D
:1016F000C07AF1EE10FA4FF0000548BF62F07F02A9
:101700004B75CA75CE740F758C750D744D748D74D0
:10171000D0ED067A17EE903AC3F3C752FF2AC3F30F
:10172000160300F03F81002A00F0038102F5607289
:10173000DC0C44EA02145E01C3F3C707E4B2C2F34F
:101740000712F6B2C3F3C723F5EEC07AF1EE10FA32
:101750004FF0000548BF62F07F024B77CA77CE7624
:101760000F778C770D764D768D76D0ED077A17EE64
:10177000903AC3F3C752FF2AC3F3160300F0338134
:10178000002A00F0B88002F56072DC0C44EA021412
:101790005E01C3F3C707E4B2C2F30712F6B2C3F3A4
:1017A000C723F5EEC07AF1EE10FA4FF0000548BFFE
:1017B00062F07F0281F8253081F8272081F82360CC
:1017C00081F8247081F8264081F8205081F821505A
:1017D00081F82250D0ED087A17EE903AC3F3C75241
:1017E000FF2AC3F3160300F0F380002A65D002F548
:1017F0006072D80C40EA02105D01C3F3C706C0B2A4
:10180000C2F30712EDB2C3F3C723F5EEC07AF1EECF
:1018100010FA4FF0000448BF62F07F0281F82B50AD
:1018200081F82C6081F82E0081F8284081F8294049
:1018300081F82A40302081F82D3081F82F20F0BC2B
:101840007047002B00F009815B001C0200F10D8144
:101850004FF46072013A5B0094B21F0222B2F9D5D4
:101860002401E4B2C2F30612C3F316035E0144EA94
:10187000D344C3F3C707F6B2C3F3C723DDE6002B97
:1018800000F0E6805B001E0200F1F2804FF460720F
:10189000013A5B0094B21D0222B2F9D52401E4B2F0
:1018A000C2F30612C3F316035E0144EAD344C3F342
:1018B000C707F6B2C3F3C723ECE6002B00F0C380E2
:1018C0005B001D0200F1D7804FF46072013A5B00AB
:1018D00090B21C0202B2F9D50001C0B2C2F30612E6
:1018E000C3F316035D0140EAD340C3F3C706EDB26C
:1018F000C3F3C72389E7002B00F0A0805B001F0221
:1019000000F1BC804FF46072013A5B0094B21E0299
:1019100022B2F9D52401E4B2C2F30612C3F31603CE
:101920005E0144EAD344C3F3C707F6B2C3F3C72347
:1019300037E7002B7DD05B001E0200F1A2804FF440
:101940006072013A5B0094B21D0222B2F9D5240103
:10195000E4B2C2F30612C3F316035E0144EAD344B1
:10196000C3F3C707F6B2C3F3C723EDE6002B5BD082
:101970005B001C0276D44FF46072013A5B0094B2B3
:101980001F0222B2F9D52401E4B2C2F30612C3F356
:1019900016035E0144EAD344C3F3C707F6B2C3F3A8
:1019A000C723A4E65E01DC0CC3F3C707F6B244F01C
:1019B000F004C3F3C7237F22C6E65E01DC0CC3F349
:1019C000C707F6B244F0F004C3F3C7237F228EE6C4
:1019D0005D01D80CC3F3C706EDB240F0F000C3F3CD
:1019E000C7237F2211E75E01DC0CC3F3C707F6B201
:1019F00044F0F004C3F3C7237F22D2E65E01DC0C7F
:101A0000C3F3C707F6B244F0F004C3F3C7237F2241
:101A100040E65E01DC0CC3F3C707F6B244F0F00405
:101A2000C3F3C7237F2208E61A461C461F461E46FC
:101A30005DE61A461C461F461E4685E61A461C46AB
:101A40001F461E46ADE61A4618461E461D46DCE6F3
:101A50001A461C461F461E461CE61A461C461F46D2
:101A60001E46EAE51446382291E714463822FBE682
:101A70001446382216E71046382231E71446382239
:101A80004CE71446382266E7D0ED017A17EE903A1B
:101A9000C3F3C752FF2AF0B4C3F3160300F0E68085
:101AA000002A78D002F56072DC0C44EA02145E0170
:101AB000C3F3C707E4B2C2F30712F6B2C3F3C723F6
:101AC000F5EEC07AF1EE10FA4FF0000548BF62F073
:101AD0007F024B71CA71CE700F718C710D704D7099
:101AE0008D70D0ED027A17EE903AC3F3C752FF2AF9
:101AF000C3F3160300F0AF80002A69D002F56072CC
:101B0000DC0C44EA02145E01C3F3C707E4B2C2F37B
:101B10000712F6B2C3F3C723F5EEC07AF1EE10FA5E
:101B20004FF0000548BF62F07F024B73CA73CE725C
:101B30000F738C730D724D728D72D0ED037A17EEA8
:101B4000903AC3F3C752FF2AC3F3160378D0002A92
:101B50005AD002F56072D80C40EA02105D01C3F35E
:101B6000C706C0B2C2F30712EDB2C3F3C723F5EE46
:101B7000C07AF1EE10FA4FF0000448BF62F07F0225
:101B8000CD740E7588750C744C748C7418204B755C
:101B9000CA75F0BC7047002B7DD05B001E0200F1BF
:101BA00082804FF46072013A5B0094B21D0222B24F
:101BB000F9D52401E4B2C2F30612C3F316035E01A1
:101BC00044EAD344C3F3C707F6B2C3F3C72377E7A6
:101BD000002B5BD05B001F0268D44FF46072013AA7
:101BE0005B0094B21E0222B2F9D52401E4B2C2F322
:101BF0000612C3F316035E0144EAD344C3F3C707D6
:101C0000F6B2C3F3C72387E7002B3AD05B001D026F
:101C100046D44FF46072013A5B0090B21C0202B2EB
:101C2000F9D50001C0B2C2F30612C3F316035D0179
:101C300040EAD340C3F3C706EDB2C3F3C72396E728
:101C40005D01D80CC3F3C706EDB240F0F000C3F35A
:101C5000C7237F228BE75E01DC0CC3F3C707F6B214
:101C600044F0F004C3F3C7237F2255E75E01DC0C88
:101C7000C3F3C707F6B244F0F004C3F3C7237F22CF
:101C80001EE71A4618461E461D4670E71A461C46B1
:101C90001F461E4640E71A461C461F461E460FE7D3
:101CA00010463822C1E71446382286E71446382207
:101CB0009FE700BF214B10B4DA6A136850681978A7
:101CC0000478507A137A044201EA03011BD0937A14
:101CD00003F0030309B143F0040343F00803991030
:101CE000013B91720D2B0BD8DFE803F021071B0796
:101CF0000A152121150A071B0721D368013BD36070
:101D00005DF8044B7047937A03F003030029E6D093
:101D100043F00403E3E7D3685DF8044B023BD36070
:101D20007047D3685DF8044B0233D3607047D368C3
:101D30005DF8044B0133D360704700BFBC19FF1F2F
:101D4000214B10B41A6B1368506819780478507AD4
:101D5000137A044201EA03011BD0937A03F00303D0
:101D600009B143F0040343F008039910013B917259
:101D70000D2B0BD8DFE803F021071B070A152121E3
:101D8000150A071B0721D368013BD3605DF8044B9C
:101D90007047937A03F003030029E6D043F004036D
:101DA000E3E7D3685DF8044B023BD3607047D36828
:101DB0005DF8044B0233D3607047D3685DF8044B81
:101DC0000133D360704700BFBC19FF1FF0B5632912
:101DD00085B003DD90F8F844002C46D01368054622
:101DE0000F4610461B6805F223219847C2B2C0F384
:101DF0000721561885F81E2247F30722F643FF23D2
:101E00004FF0FE0EFCB285F82222421C85F82062BB
:101E100085F81F1285F81C3285F81DE285F82142ED
:101E20000DDB00F22221294405F22123002201E0EA
:101E300013F8014F8B422244FAD1D343DBB22A1864
:101E400000F10804B4F5007F82F8233217DC6A68D9
:101E5000354E13685B68B34205F5077008D121461B
:101E600004F012F9204605B0F0BD204605B0F0BDE3
:101E70000146104622469847204605B0F0BD2B4A41
:101E80002B492B68019203208DF8080003911B68F1
:101E9000284A93423FD10024382285F8230285F84E
:101EA000242285F8254285F8264285F8274205F543
:101EB0000A7002F013FEFF273D20C223FE260721F1
:101EC00085F81E0285F8203285F81F4285F82242E7
:101ED000224685F81C7285F81D6285F8211205F2EC
:101EE000212305F25F2001E013F8011F98420A4404
:101EF000FAD1D243686885F8602203680A4A5B68B1
:101F0000934205F507710BD10846452104F0BCF852
:101F10004FF0FF30A7E7284601AA07219847F7E7C7
:101F200045229847F4E700BF1D0900002C76000009
:101F3000F4770000CD1D0000F8B5154C154F164B79
:101F4000164864254FF0804200262946E2610022AF
:101F5000A660E66026613D6002F094FD0D2003F06E
:101F60009BF9C0F10101C9B20D2003F08FF90121E5
:101F7000162003F08BF90121172003F087F91520B3
:101F8000012103F083F92846BDE8F84003F098B931
:101F90005819FF1FF413FF1F801A0600B419FF1F02
:101FA00030B5164C164D2368296883B00093009A0B
:101FB000521A042A0DD9134B1B68012B1CD0ABB944
:101FC0000121112003F062F9C821142002F0DAFF88
:101FD000296823680193019B5B1AB3F5967F03D3AD
:101FE0000021142002F0CEFF03B030BD00211420E8
:101FF00002F0C8FF2968ECE70021E2E7BC1AFF1FE6
:102000001014FF1FD407FF1F08B50021152003F08F
:102010003DF90121162003F039F901211720BDE80F
:10202000084003F033B900BF08B50121152003F0C3
:102030002DF90021162003F029F900211720BDE811
:10204000084003F023B900BF10B5124CD4ED027A5A
:10205000B2EE047AF4EE477AF1EE10FA15D0F5EE0E
:10206000407AF1EE10FA0BD0BAEE047AF4EE477A29
:10207000F1EE10FA00D010BDBDE81040FFF7D4BF5C
:10208000FFF75AFFD4ED027AEEE7FFF7BDFFD4ED7C
:10209000027AE4E75819FF1F30B5144C144D236839
:1020A000296883B00093009A521A312A12D8236803
:1020B0000193019B41F287325B1A934208D9FFF7E3
:1020C0003BFF0C4A0C4B11880C48002202F0DAFC52
:1020D00003B030BDFFF7B8FF064A074B1188074829
:1020E000002202F0CFFC2968E1E700BFBC1AFF1F05
:1020F000F813FF1FF413FF1F801A0600B419FF1F07
:1021000008B50F4BD3ED087AF5EEC07AF1EE10FA70
:102110000CD44FF001014FF01F0009DD03F0B6F8B9
:1021200000211E20BDE8084003F0B0B800211F20A8
:1021300003F0ACF801211E20BDE8084003F0A6B86A
:102140005819FF1F2DE9F0414A4D4B4E29684B4C61
:102150004B48DFF848E14FF46143B36040F2EE27AB
:10216000237843B10378DA0705D52B68DEF8002021
:102170009B1A0E2B07D82B6822785B1A002A74D082
:10218000B3F5FA6FECD90121162003F093F8012181
:10219000152003F08FF801211F2003F08BF8012197
:1021A0001E2003F087F801210D2003F083F80121A0
:1021B000112003F07FF80121142003F07BF80121A6
:1021C000172003F077F829682D48DFF8D0E040F2B7
:1021D000EE27237843B10378DB0705D52B68DEF8BB
:1021E00000209B1A0E2B07D82B6822785B1A002A36
:1021F00038D0B3F5FA6FECD90024224A2248C6F849
:10220000E4446021C6F8E844C6F8F044C6F8EC445B
:1022100002F020FC1D4A234602E00133192B0AD0AC
:1022200052F8041F0029F8D103F59071184A46F8B6
:102230002120643353600121162003F027F8002188
:10224000142002F09FFE00221146124B0E4802F0AD
:1022500019FC114A0F4B11880B480022BDE8F041D0
:1022600002F010BCBB42B4D9C6E7BB427FF678AFE0
:1022700089E700BFBC1AFF1F1414FF1FA01BFF1F1C
:10228000B81BFF1F4408FF1FB419FF1F9018FF1F42
:102290007C19FF1F801A0600F413FF1F301CFF1F5C
:1022A0002DE9F04F2B4E2C4C91B0FFF7F5FEFFF7C8
:1022B00077FEFFF725FF33680593DDF814B0D4F8F7
:1022C000003542F6F822C3EB0B03934284BF002390
:1022D00084F8F834D4F8E4341F4A33B1D2F8043522
:1022E0009B4584BF0023C2F8E4341B4DA26932B180
:1022F00033680993099BCBEB03039A4226D36068AA
:10230000164A03685B69934240F0088203F056FE68
:102310000028C0F20782D4F8F434D4F8E424DFF8BB
:1023200038E00344072AC4F8F43400F0DD81BAB978
:10233000FF2800F04B8233680893089B41F28831F4
:10234000CBEB03038B42D1D98EF8F82411B0BDE852
:10235000F08F00BFBC1AFF1F1414FF1F05070000F9
:10236000012A00F03B82022A00F08182032A00F059
:102370008982042A00F09082052A00F09C82062AB5
:1023800000F0A182082AB1D1E14A1A4000239A4202
:10239000C4F8E434C0F2AF82FF2AA7D1D4F8EC34F9
:1023A000DFF87493002B00F096840A2B00F0B082C3
:1023B000062B00F015830B2B00F0A682BC3355F8DA
:1023C0002380B8F1000F91D0D8F80030D14A1B68B3
:1023D000934240F0858695F8231095F8200095F8F3
:1023E0002230EA7F95F821C04FEA011E00010EF469
:1023F000FE6E40EA121218054EEA131340F2FF7EF9
:1024000000F4700042EA0C32734542EA000208F11F
:102410000C0A08F1140000F0CE8240F27E4C6345B5
:102420000FFA83FE00F2BD82BEF5607F40F3148494
:10243000A3F56073DB056FF07F4E724500F0EA8311
:102440000132520821F07F0113430DF1400943EAA4
:10245000016349F80C3D0422494602F03FFB94F821
:102460002B1094F8282094F8270094F82AE094F888
:1024700029C00B0103F4FE63120142EA10124FEA75
:102480000E5043EA1E1E40F2FF7300F4700042EA51
:102490000C329E4542EA000208F1180000F08E82DC
:1024A00040F27E4CE6450FFA8EF300F27682B3F5E9
:1024B000607F40F3C283AEF56073DB056FF07F4E43
:1024C000724500F0AD830132520821F07F011343C1
:1024D00043EA0163042249460D9302F0FFFA94F89F
:1024E000331094F8302094F82F0094F832E094F8E8
:1024F00031C00B0103F4FE63120142EA10124FEAED
:102500000E5043EA1E1E40F2FF7300F4700042EAD0
:102510000C329E4542EA000208F11C0000F048829D
:1025200040F27E4CE6450FFA8EF300F23282B3F5AC
:10253000607F40F37783AEF56073DB056FF07F4E0D
:10254000724500F095830132520821F07F01134358
:1025500043EA0163042249460D9302F0BFFA94F85E
:102560003B1094F8382094F8370094F83AE094F847
:1025700039C00B0103F4FE63120142EA10124FEA64
:102580000E5043EA1E1E40F2FF7300F4700042EA50
:102590000C329E4542EA000208F1240000F0058258
:1025A00040F27E4CE6450FFA8EF300F2EE81B3F571
:1025B000607F40F36D83AEF56073DB056FF07F4E97
:1025C000724500F018830132520821F07F01134355
:1025D00043EA0163042249460D9302F07FFA94F81E
:1025E000431094F8402094F83F0094F842E094F8A7
:1025F00041C00B0103F4FE63120142EA10124FEADC
:102600000E5043EA1E1E40F2FF7300F4700042EACF
:102610000C329E4542EA000208F1280000F0E582F3
:1026200040F27E4CE6450FFA8EF300F2AA81B3F534
:10263000607F40F32283AEF56073DB056FF07F4E61
:10264000724500F0DA820132520821F07F01134313
:1026500043EA0163042249460D9302F03FFA94F8DD
:102660004B1094F8482094F8470094F84AE094F806
:1026700049C00B0103F4FE63120142EA10124FEA53
:102680000E5043EA1E1E40F2FF7300F4700042EA4F
:102690000C329E4542EA000208F12C0000F0A882AC
:1026A00040F27E4CE6450FFA8EF300F26681B3F5F8
:1026B000607F40F3A482AEF56073DB056FF07F4E60
:1026C000724500F0A9820132520821F07F011343C4
:1026D00043EA0163042249460D9302F0FFF9D8F85A
:1026E00030305046984701E6D5F8F024D5F8E83464
:1026F000A918013B01320877C5F8F024C5F8E83481
:10270000002B7FF4F3AD0823C4F8E434EEE500BFFA
:10271000FF0000800D0B00001414FF1F98470028D5
:10272000BFF6F9AD94F8F834A648002B3FF40EAE8E
:10273000D0F8FC3440F6C412C3EB0B0393427FF68F
:1027400005AEFF23FE21002280F81C3280F81D1206
:10275000F72308250A2180F8203280F8232280F808
:10276000242280F8252280F8262280F8272280F86B
:10277000282280F8292280F82A2280F81F2280F857
:10278000222280F81E5280F8211200F2212300F24A
:102790002A2001E013F8011F98420A44FAD1D243DB
:1027A000606884F82B220368874A5B68934240F094
:1027B000A7801021854803F067FC33680D930D9BBB
:1027C000C4F8FCB4E36011B0BDE8F08F01220BF156
:1027D0001403C5F8E424C5F8043587E5FE2866D05F
:1027E00095F8F8240023C5F8E434002A7FF47EAD80
:1027F000FF23FE21082085F81C3285F81D12F723DF
:102800000A2185F8203285F823220EF2212385F84B
:10281000242285F8252285F8262285F8272285F8A6
:10282000282285F8292285F82A2285F81F2285F892
:10283000222285F81E0285F821120EF22A2E01E0CE
:1028400013F8011F9E450A44FAD1D243606884F808
:102850002B2203685C4A5B68934243D110215B489A
:1028600003F012FC33680793079BE3603EE5002208
:102870000323C5F8E804C5F8F404C5F8F024C5F846
:10288000E43433E5D5F8E83403EB00200423C5F83D
:10289000E804C5F8E43429E54D4A1A40002A25DB4E
:1028A000FF2A0CBF05230023C4F8E4341EE50223ED
:1028B000C5F8E4341AE50623C5F8EC04C5F8F404B9
:1028C000C5F8E43412E5D5F8EC34D5F8E82403EB88
:1028D00000230721C5F8EC34C5F8E414002A3FF4BE
:1028E00012AF03E5102239499847BBE7013A62F07D
:1028F000FF020132D4E7013A62F0FF0201324BE5F8
:1029000010223249984758E7002385F8F834EDE45F
:1029100033680A930A9BEA6831680C919B1A2D4A26
:10292000DDF83080286ADFF8B4C02A4FE969A2FBDD
:10293000032E4FEA9E1E84444FF47A722648A7FB6A
:10294000087A02FB1E334FEA9A1A013900FB03C3CF
:10295000714402FB1A8200FB1233CAEB010209F137
:10296000100009F114016B612A6102F05BF8336811
:102970000B930B9BC5F80035B8E44FF0FF430022E2
:10298000A3E64FF0FF4300225FE64FF0FF43002233
:102990001BE64FF0FF430022D7E54FF0FF43002234
:1029A00093E54FF0FF4300224CE54FF0FF4305E66F
:1029B0004FF0FF43C2E54FF0FF433CE54FF0FF43CC
:1029C0007CE500BF1414FF1F1D0900003016FF1F17
:1029D000FF000080D34D621040420F0000CA9A3BB6
:1029E000D5F81C80D5F81035984507D94FEA8801ED
:1029F000D5F8180504F0C6F9C5F81805C4F810850F
:102A0000B8F1000F00F05681DFF834834FF004096D
:102A10004FF0000A98F8221098F8213098F82020FA
:102A200098F823E0D4F81805090441EA0323134376
:102A300043EA0E6300EB8A00BC49C4F81435042253
:102A400002F04CF8D4F810350AF1010A5345494612
:102A500008F1040809F10409DCD801F1080A01F1C0
:102A6000050E01F1060C01F1070801F1090301F15E
:102A70000A0201F10B070C3148460191D146A444EA
:102A8000A6449CF81CC09EF81C102044A0444FEAA9
:102A90000C4C007F98F81CE04CEA012C4CEA000C2E
:102AA000D4F81C154CEA0E6888450BD94FEA88010A
:102AB000D5F824050392029304F064F9039A029B6B
:102AC000C5F82405C4F81C85B8F1000F00F0EF80AC
:102AD00005EB090A4FF000089AF81E109AF81D300D
:102AE0009AF81C209AF81FE0D4F82405090441EA5A
:102AF000032313438E4943EA0E630B6000EB880007
:102B0000042201F0EBFFD4F81C3508F1010843451D
:102B100049460AF1040A09F10409DDD8C81DCA466C
:102B20004B1D8A1D074601F1080822442344117FEA
:102B3000187FD4F828353A462244A2449646090420
:102B40009AF81C209EF81C9041EA00210A4342EAB0
:102B50000969994507D94FEA8901D5F8300504F08C
:102B600011F9C5F83005C4F82895B9F1000F37D030
:102B70004FF0000AD14608F11C01002321449E4673
:102B800011F8012B9A400833202B4EEA020EF7D1A0
:102B900008F104008644864509D908F11F0323443F
:102BA00002460132597803F8011B9645F9D804EB27
:102BB0000E02604982F81B90431ED4F83005A1F53F
:102BC000A262134400EB8A000422C4F82C35F046BC
:102BD00001F084FFD4F828350AF1010A5345CAD818
:102BE000012384F80835FFF781BB4FF0FF4325E54B
:102BF0004FF0FF4362E5504AE7E44F4A25E5B3F55D
:102C00005A7F0BDDC3F56073013342F08072DA4006
:102C1000002353E5484A15E4474A56E500234DE5AD
:102C2000454A52E4B3F55A7F12DDC3F560730133B0
:102C300042F08072DA40002380E4B3F55A7F09DD68
:102C4000C3F56073013342F08072DA40002335E44B
:102C5000002373E4002331E4BEF55A7F0ADDCEF58C
:102C60006073013342F08072DA400023FFF7E3BB68
:102C7000314A6AE40023FFF7DEBBB3F55A7F12DD69
:102C8000C3F56073013342F08072DA400023D5E46B
:102C9000B3F55A7F09DDC3F56073013342F08072EA
:102CA000DA4000238AE40023C8E4002386E4DDF848
:102CB00004803AE70C234FF0080A01930B231F46C8
:102CC000D1460A2209234FF007084FF0060C4FF0B7
:102CD000050E0420D3E69A4609F22321174B0D93E3
:102CE0000DA89046CDF838A0CDF83CA0FDF7BEFB6E
:102CF000C2B2C0F307215318DB4389F81E22FE2518
:102D00000A22471C89F81C8289F822A289F82032FD
:102D100089F81F1289F81D5289F821221BDB00F265
:102D200022214944534609F221290DE02819FF1FA9
:102D30003419FF1F4019FF1FFFFF7F00FC750000C3
:102D40001414FF1F19F8012F49451344FAD16FEAF3
:102D500003085FFA88F8231800F10802B2F5007F33
:102D600083F82382D34900F359824868036801F548
:102D700007715B68984733680693CF4E069BE36004
:102D800006F164030193A6F5836556F8043F002B12
:102D900000F0B58058689A6801680292D3F800A0E4
:102DA0008B6898473368814658680368DB689847A2
:102DB0003368029A1F69632F804604DD94F8F83463
:102DC000002B00F09C80C2F30723504684F8232296
:102DD00084F8243204F0F4F90346020A000C4FEAA6
:102DE000136E514684F8262284F827021A46B34807
:102DF00084F82532029384F828E201F06FFE4846F9
:102E000004F0DEF9029B024603F229202044063337
:102E1000002122FA01FE0831202900F801EBF8D147
:102E2000A74804334946184402EB030901F056FE53
:102E3000404604F0C5F909F22322824622440023C9
:102E40002AFA03F10833202B02F8011BF8D19C4B1E
:102E500009F10409414603EB0900524601F03EFE28
:102E60000AEB090000F1040E21185FFA8EF8CEF388
:102E7000072C0022022308EB0C0A81F8243281F887
:102E8000232281F8252281F826226FEA0A0AF9B264
:102E9000FF234FF0FE0947F30727BEF1FF3F84F8F9
:102EA00020A284F81E8284F81FC284F81C3284F8A1
:102EB0001D9284F8211284F822720BDB00F2262086
:102EC000804B284401E013F8011F98420A44FAD1CC
:102ED000D343DBB204EB0E010EF10802B2F5007F22
:102EE00081F8233200F310816868774903685B68D2
:102EF0008B4240F002811146744803F0C5F8019BF3
:102F00009E427FF442AFDFF8D4A1CDF808B09B46D3
:102F10005BF8040F002800F0BF8090E808026C49BD
:102F20009A68D0F808808A4200F0E580904707460A
:102F3000DBF800000368DA6866498A4200F0D9804D
:102F400090470646DBF8000003685B68624A9342DC
:102F500040F0CC80456B632D04DD94F8F834002BF1
:102F600000F09A80C9F30723404684F8239284F83E
:102F7000243204F025F98146020A000C41464FEA4A
:102F8000196384F8262284F827024A464B4884F8BD
:102F9000283284F8259201F0A1FD384604F010F99A
:102FA00009F229210246214409F10608002322FAE8
:102FB00003F00833202B01F8010BF8D1404B08F146
:102FC000040803EB08003946904401F087FD3046C1
:102FD00004F0F6F808F2232207462244002327FAD9
:102FE00003F10833202B02F8011BF8D1344B08F110
:102FF00004083A464744314603EB08003E1D01F001
:103000006DFD5FFA86FCC6F3072EE3190CEB0E008C
:103010000022C043022183F8241283F8232283F87C
:10302000252283F8262284F82002E8B245F30725FA
:10303000FE23FF2184F82252751C84F81D3284F887
:103040001EC284F81FE284F81C1284F82102194B76
:10305000C0F2E88007F22621194403F2212301E09F
:1030600013F8010F8B420244FAD1D343DBB2A1190A
:1030700006F10802B2F5007F81F823320D4F00F30C
:103080008A807868104903685B688B4238D11146A2
:1030900007F5077002F0F8FFDA457FF439AFDDF885
:1030A00008B0C4F8FCB40123C4F800B584F8F834BF
:1030B000FFF74CB91414FF1F2C18FF1F3D16FF1FFC
:1030C0003716FF1F3516FF1F1D0900003016FF1FA2
:1030D000ED060000F5060000E9060000F418FF1FE9
:1030E00009F11C0140469847FFF700B9984705468B
:1030F00031E74D4E29E74D4F1DE74D499847FEE614
:1031000007F507719847C7E7DFF82CE1494FBEE89C
:103110000F000FC7BEE80F000FC7BEE80F000FC7B4
:103120009EE8030000234FF0030C4FF0380EFF22FF
:1031300085F823C285F824E24FF0FE0C4FF03D0ED7
:1031400085F8253285F8263285F8273287E803008E
:10315000C22085F81C220722A7F1370185F81F320B
:1031600085F82232073785F81DC285F81EE285F8FA
:10317000200285F8212201E011F8012FB942134401
:10318000FAD1DB43606884F86032036828495B68E1
:1031900045229847B3E6284D0FCD07F50A760FC6AE
:1031A0000FCD0FC60FCD0FC695E8030000220325F3
:1031B000382387F8235287F824324FF0FF0C4FF062
:1031C000FE0E3D2587F8252287F8262287F827223C
:1031D0004FF0C20886E80300072187F81F2287F80E
:1031E0002222A6F13700F31D87F81CC287F81DE2E2
:1031F00087F81E5287F8208287F8211201E010F824
:10320000011F98420A44FAD1D243606884F86022D0
:10321000036807495B68452298473DE70846FEF783
:1032200089F9A8E50B4622E7D0770000BC770000BB
:103230003016FF1F3C16FF1FF47700002DE9F04FFA
:103240008DB0CB4ACB4B06920022044600F5836535
:1032500000F27C46ADF81C200B92089309930A9368
:1032600055F8043F002B00F0C28058681F680168C1
:103270009A6808978B68ADF81C2098472B680990CE
:1032800058680368DB689847236829680A904FF4F8
:1032900000721B68D1F810800B92B74A93428246A5
:1032A00040F0A981B8F1630F04DD94F8F834002BE5
:1032B00000F09D80BDF81C30DDF8209084F82332AA
:1032C0001B0A84F82432484603F07AFF07463B0E77
:1032D0003A0C000A494684F8283284F8257284F8AA
:1032E000260284F8272204F229203A4601F0F6FB50
:1032F000DDF824B0584603F063FF04F22329791D5A
:10330000024606374944002322FA03F00833202BF3
:1033100001F8010FF8D10437594609EB07001744AB
:1033200001F0DCFB504603F04BFF09EB070383463B
:1033300000222BFA02F10832202A03F8011BF8D1EF
:103340000437514609EB07005A4601F0C7FB0BEB67
:1033500007031F1D09EB03015FFA87FAC7F3072C68
:1033600000220AEB0C0E4FF0020B09F803206FEA63
:103370000E0E8A70CA7081F801B0FF205FFA88F1E2
:103380004FF0FE0948F30728B7F1FF3F84F820E229
:1033900084F81EA284F81FC284F81C0284F81D92CF
:1033A00084F8211284F82282C0F2D08103F226230D
:1033B000E01804F2212301E013F8011F98420A44A7
:1033C000FAD1D243D2B2E31907F10801B1F5007F77
:1033D00083F8232200F323816768684A3B685B68AF
:1033E000934204F5077040F0108102F04DFEAE42AA
:1033F0007FF436AF04F59C6956F8040F002800F0FE
:10340000E48003688268416808929A68ADF81C10ED
:103410005B498A4240F0F4805A4A0992DA685A4974
:103420008A4240F0E380594A21680A924FF40072C0
:103430005B680D680B92564A934240F0D480D0F8F6
:1034400034804D4FBD4240F0C980B8F1630F04DDB8
:1034500094F8F834002B00F0B880BDF81C30089DBB
:1034600084F823321B0A84F82432284603F0A8FE8D
:1034700082464FEA1A634FEA1A42000A294684F844
:10348000283284F825A284F8260284F8272204F240
:103490002920524601F022FB09990191084603F0C8
:1034A0008FFE04F223250AF10502019983460AF1F1
:1034B000060A2A4400232BFA03F00833202B02F8D3
:1034C000010FF8D10AF1040A5A4605EB0A0001F08F
:1034D00005FB0A990191084603F072FED344019955
:1034E000824605EB0B0300222AFA02F00832202A5A
:1034F00003F8010BF8D10BF1040B05EB0B0052465E
:1035000001F0ECFA0AEB0B031A1D0B99E9545FFA70
:1035100082FCC2F3072E1D440CEB0E004FEA112B68
:103520004FEA114AC043090E85F801B085F802A0A0
:10353000E9704FF0FF0B5FFA88F14FF0FE0A48F395
:10354000072884F82002501C84F81EC284F81FE269
:1035500084F81CB284F81DA284F8211284F8228217
:1035600021DB03F22623E518002004F2212313E0D7
:10357000147600002C780000CD1D00001D0900000D
:10358000ED060000BC770000F5060000D0770000D3
:10359000E906000013F8011FAB420844FAD16FEAB4
:1035A000000B5FFA8BFBA31802F10801B1F5007F55
:1035B00083F823B27EDC65686B4A2B685B689342B4
:1035C00004F5077026D102F05FFDB1457FF414AF1A
:1035D000012384F8F8340DB0BDE8F08F414606AA07
:1035E0002046A847F1E7984780462AE790470246D9
:1035F0003068036818E7414606AA20469847F6E671
:10360000904702463068036807E70A460146384695
:103610009847ECE60A46014628469847D5E7534ABC
:1036200003920321524A236805928DF810101B68FB
:10363000504A934240F085800027382284F82312B4
:1036400084F824224A4984F8257284F8267284F882
:10365000277204F50A7001F041FAFF213D20C223D0
:103660004FF0FE0E84F81C12072184F81E0284F825
:10367000203284F81F7284F822723A4684F81DE2E0
:1036800084F8211204F2212304F25F2001E013F8F0
:10369000011F98420A44FAD1D243606884F860223C
:1036A0000368314A5B68934204F5077158D10846B4
:1036B00045219AE62D4A2E492368039203208DF86E
:1036C000100005911B68BB4245D10025382284F8C3
:1036D000230284F8242284F8255284F8265284F8A0
:1036E000275204F50A7001F0F9F9FF213D20C223A9
:1036F000FE2784F81C12072184F81E0284F8203269
:1037000084F81F5284F822522A4684F81D7284F8E5
:10371000211204F2212304F25F2001E013F8011FBB
:1037200083420A44FAD1D243606884F86022036875
:103730000D4A5B68934204F5077109D1084645219B
:1037400041E703AA07212046984750E602463AE699
:103750004522984739E703AA07212046984734E7CE
:103760004522984743E600BF1D0900002C76000063
:10377000F4770000CD1D00002DE9F04F254E91B0EB
:1037800033680493049DD0F8003542F6F822EB1A12
:10379000934284BF002380F8F834D0F8E434044620
:1037A00033B1D0F80435AB423CBF0023C0F8E43459
:1037B000194FA26932B133680593059B5B1B9A428E
:1037C000C0F0B982606803685B69BB4240F0FF816A
:1037D00002F0F4FB0028C0F2FE81D4F8F434D4F8EF
:1037E000E4240344072AC4F8F43400F0DD81AAB9C4
:1037F000FF2800F0018233680693069B41F288316E
:103800005B1B8B42D5D984F8F8246FF0010011B00E
:10381000BDE8F08FBC1AFF1F05070000012A00F069
:10382000F781022A00F04C82032A00F05482042A15
:1038300000F05B82052A00F06782062A00F06C82A5
:10384000082AB6D1F04A1A4000239A42C4F8E43458
:10385000C0F2D482FF2AACD1D4F8EC34002B00F0B3
:103860007F840A2B00F00684062B00F0EF820B2BDE
:1038700000F0C982BC3354F82390B9F1000F98D0FE
:10388000D9F80030E14A1B68934240F0618494F813
:10389000231094F8200094F822E0E27F94F821C0ED
:1038A0000B01000103F4FE6340EA121243EA1E1307
:1038B0004FEA0E5040F2FF7E00F4700042EA0C32F4
:1038C000734542EA000209F10C0809F1140000F006
:1038D0003B8440F27E4C63450FFA83FE00F218846D
:1038E000BEF5607F40F35584A3F56073DB056FF090
:1038F0007F4E724500F08E840132520821F07F0124
:1039000013430DF1400A43EA01634AF80C3D0422D7
:10391000514601F0E3F894F82B1094F8283094F80D
:103920002A2094F8270094F829E04FEA011C1B0193
:103930000CF4FE6C43EA10134CEA121C100540F222
:10394000FF7200F4700043EA0E33944540EA030E20
:1039500009F1180000F0EC8340F27E439C450FFA19
:103960008CF200F2DE83B2F5607F40F36384ACF545
:103970006072D2056FF07F439E4500F048840EF1DF
:1039800001035B0821F07F01134343EA0163042232
:1039900051460D9301F0A2F894F8331094F83030AA
:1039A00094F8322094F82F0094F831E04FEA011C8B
:1039B0001B010CF4FE6C43EA10134CEA121C1005B8
:1039C00040F2FF7200F4700043EA0E33944540EA7F
:1039D000030E09F11C0000F0A88340F27E439C45D1
:1039E0000FFA8CF200F29983B2F5607F40F31584F0
:1039F000ACF56072D2056FF07F439E4500F0EA831C
:103A00000EF101035B0821F07F01134343EA0163D8
:103A1000042251460D9301F061F894F83B1094F89C
:103A2000383094F83A2094F8370094F839E04FEAA7
:103A3000011C1B010CF4FE6C43EA10134CEA121C2F
:103A4000100540F2FF7200F4700043EA0E33944513
:103A500040EA030E09F1240000F0708340F27E4337
:103A60009C450FFA8CF200F2E481B2F5607F40F3DE
:103A70009C83ACF56072D2056FF07F439E4500F0E9
:103A80006D830EF101035B0821F07F01134343EACC
:103A90000163042251460D9301F020F894F843107D
:103AA00094F8403094F8422094F83F0094F841E0B4
:103AB0004FEA011C1B010CF4FE6C43EA10134CEAA4
:103AC000121C100540F2FF7200F4700043EA0E333E
:103AD000944540EA030E09F1280000F0328340F2D9
:103AE0007E439C450FFA8CF200F29F81B2F5607F15
:103AF00040F37D83ACF56072D2056FF07F439E4545
:103B000000F066830EF101035B0821F07F0113438F
:103B100043EA0163042251460D9300F0DFFF94F85D
:103B20004B1094F8483094F84A2094F8470094F8E1
:103B300049E04FEA011C1B010CF4FE6C43EA101330
:103B40004CEA121C100540F2FF7200F4700043EAC8
:103B50000E33944543EA000309F12C0000F0EB8298
:103B600040F27E4EF4450FFA8CF200F25A81B2F523
:103B7000607F40F33183ACF56072D2056FF07F4E09
:103B8000734500F01E8301335B0821F07F0113436E
:103B900043EA0163042251460D9300F09FFFD9F8D8
:103BA00030304046984704E6D4F8F034E218013348
:103BB000C4F8F0341077D4F8E834013BC4F8E834A2
:103BC000002B7FF4F6AD0823C4F8E434F1E5984700
:103BD0000028BFF602AE94F8F80400283FF417AEB0
:103BE000D4F8FC3440F6C412EB1A934200F2A880D9
:103BF000002011B0BDE8F08F012205F11403C4F8D4
:103C0000E424C4F80435D4E5FF0000800D0B000067
:103C1000FE2875D094F8F8240023C4F8E434002A70
:103C20007FF4C7AD854923680D911B6884490E92C6
:103C30008B420F9240F0D880FF210820F7234FF0ED
:103C4000FE0E84F81C120A2184F81E0284F8203229
:103C500084F8232284F8242284F8252284F826225A
:103C600084F8272284F8282284F8292284F82A223A
:103C700084F81F2284F8222284F81DE284F821129D
:103C800004F2212304F22A2001E013F8011F8342E9
:103C90000A44FAD1D243D4F804E084F82B22DEF8A7
:103CA0000030684A5B68934204F5077040F0A180D9
:103CB000102102F0E9F933680793079BE36078E588
:103CC00000220323C4F8E804C4F8F404C4F8F02480
:103CD000C4F8E4346DE5D4F8E83403EB00200423A1
:103CE000C4F8E804C4F8E43463E5574A1A40002AEB
:103CF00075DBFF2A0CBF05230023C4F8E43458E524
:103D00000223C4F8E43454E50623C4F8EC04C4F8F0
:103D1000F404C4F8E4344CE5D4F8EC34D4F8E824E2
:103D200003EB00230721C4F8EC34C4F8E414002AA0
:103D30003FF449AF3DE56FF0010011B0BDE8F08FF1
:103D40003E4A23680D921B683D4900228B420E9229
:103D50000F925CD1FF210820F723FE2784F81C1264
:103D60000A2184F81E0284F8203284F8232284F881
:103D7000242284F8252284F8262284F8272284F835
:103D8000282284F8292284F82A2284F81F2284F821
:103D9000222284F81D7284F8211204F2212304F2F5
:103DA0002A2001E013F8011F83420A44FAD1D243CA
:103DB000676884F82B223B68224A5B68934204F5CB
:103DC000077029D1102102F05FF933680993099B2C
:103DD000C4F8FC540020E36011B0BDE8F08F013A54
:103DE00062F0FF02013284E70DAA0A2120469847BB
:103DF00061E701461022704698475CE7013A62F09D
:103E0000FF02013226E5002384F8F834D1E40DAA3C
:103E10000A2120469847D8E701461022384698479D
:103E2000D3E74FF0FF420023AFE64FF0FF420023FD
:103E30006BE64FF0FF42002326E600BFFC75000052
:103E4000CD1D00001D090000FF000080227F637F60
:103E500094F81E90E17F42EA032343EA0943D4F831
:103E6000102543EA0169914504F11C0807D94FEA7E
:103E70008901D4F8180502F085FFC4F81805C4F8C4
:103E80001095B9F1000F00F0EB8104F21453009388
:103E9000C1464FF0040A4FF0000B99F8063099F82C
:103EA000050099F8042099F807101B0443EA002341
:103EB0001343D4F8180543EA0163C4F8143500EB42
:103EC0008B000422009900F009FED4F810350BF1A4
:103ED000010B5B45524609F104090AF1040ADCD8DA
:103EE00002F1090302F1080B02F10B0102F1050EC8
:103EF00002F1060C02F10709009302F10A030C32E9
:103F000050460191DA46029218F80C2018F80EC0BB
:103F100018F8000018F809E0D4F81C15120442EA59
:103F20000C22104340EA0E69894509D94FEA8901FC
:103F3000D4F82405039302F025FF039BC4F824055D
:103F4000C4F81C95B9F1000F00F0878104F5A46353
:103F5000009304F20C5308EB0A094FF0000B019395
:103F600099F8021099F8013099F8002099F803E0C7
:103F7000D4F82405090441EA03231343019A009964
:103F800043EA0E63536100EB8B00042200F0A6FDB0
:103F9000D4F81C350BF1010B5B45524609F10409BD
:103FA0000AF1040ADCD8531DD11D0093D346931D9A
:103FB000019102F1080918F80310009B019A18F802
:103FC000030018F80B3018F802A0D4F828250904CB
:103FD00041EA00210B4343EA0A6A924507D94FEAB6
:103FE0008A01D4F8300502F0CDFEC4F83005C4F8DB
:103FF00028A5BAF1000F38D04FF0000A04F22C5374
:10400000D346009300239E4608EB090111F8012BCB
:104010009A400833202B4EEA020EF7D109F1040131
:104020008E4471450AD209F1030343440A46013222
:1040300013F8010F03F8010C7245F8D308EB0E02D8
:104040004B1E02F801BCD4F8300500994344C4F873
:104050002C3500EB8A000422F14600F03FFDD4F835
:1040600028350AF1010A5345CCD8012384F80835D4
:10407000FFF79FBB33680A930A98E36894F821809E
:10408000316894F8202094F81CA00C91C3EB000E2A
:10409000617F7C4B94F822C094F8239042EA082276
:1040A00094F81E80A3FB0E304AEA0121E37FDFF87B
:1040B000E0A142EA0C4C41EA08410C9A4CEA096C36
:1040C00041EA0361DFF8CC916E4B80094FF47A78B6
:1040D000E144A3FB023C4FEA9C1C08FB10EE0139B3
:1040E00008FB1C2208440AFB0E9E21460AFB12E331
:1040F000CCEB0002226104F1100041F8143F00F003
:1041000091FC33680B930B9BC4F80035FFF751BB50
:104110004FF0FF430022FFF7F1BB4FF0FF420023B7
:1041200071E44FF0FF4200232CE44FF0FF4262E4C1
:104130004FF0FF421EE44FF0FF421FE54FF0FF42F9
:104140009AE44FF0FF42D8E44FF0FF43FFF7CFBBB4
:10415000484604F11C019847FFF72BBB4A4B93E4F8
:1041600022684A490D910E930F930A211368204645
:104170000DAA984733680893089BE3602046FFF731
:104180005DF8C4F8FC54C4F800554FF0FF30FFF759
:104190003EBBBEF55A7F16DDCEF56073013342F0AB
:1041A0008072DA400023FFF7A2BBB2F55A7F0DDD23
:1041B000C2F5607201324EF0807323FA02FE0022D3
:1041C0005AE4314BE1E40023FFF791BB002253E4B2
:1041D0002D4B9AE42C4B16E4B2F55A7F13DDC2F551
:1041E0006072013243F08073D3400022C6E4B2F51E
:1041F0005A7F0ADDC2F5607201324EF0807323FAF5
:1042000002FE002279E40022B8E4002275E41E4B8D
:10421000FFF7B8BB1C4AFFF771BBB2F55A7F16DD3A
:10422000C2F5607201324EF0807323FA02FE002262
:10423000FFF7E1BBB2F55A7F0CDDC2F560720132C7
:104240004EF0807323FA02FE0022FFF793BB002298
:10425000FFF7D1BB0022FFF78DBBDDF80890AAE67F
:104260000C234FF0080B029309220B230193DA462B
:104270000A2300924FF007094FF0060C4FF0050E8D
:10428000042041E6D34D6210FFFF7F00FC75000063
:1042900040420F0000CA9A3BF8B500F0F3FC5748C3
:1042A000574C584F584E00F0D1FB584800F0CCF80E
:1042B000574B236000254FF46143A3602946676094
:1042C00004F11C004FF40072E56025616561A56191
:1042D00002F006FD294604F507704FF4007202F063
:1042E000FFFC294604F21C40642202F0F9FC294636
:1042F00004F59060642202F0F3FC04F5A46300224C
:10430000444F1A60C4F81055C4F81455C4F8185531
:10431000C4F81C55C4F82455C4F82855C4F82C55C5
:10432000C4F83055C4F80C7502210B20C4F8E454CD
:10433000C4F8E854C4F8EC54C4F8F054C4F8F45485
:1043400084F8F854C4F8FC54C4F80055C4F8045573
:1043500084F8085500F0AEFF02210C2000F0AAFFFF
:104360002D4A2E4B916D126EF560012001F50075FE
:1043700002F500743560746030727072013BFDD1DB
:1043800091F8003292F80022254C2649E66203405B
:10439000D20744BF43F00203DBB204220B20012505
:1043A000B37200F05FFD04221F4926630C203574B0
:1043B00000F058FD347C1D4B1D491E48DFF884E099
:1043C0005D632C4400221C4D1C4F186334741C4840
:1043D000C3F800E09F60DD600D60486048611861CF
:1043E00018628A60CA600A618A61CA610A625A6197
:1043F0009A61DA615A629A62DA62F8BDB419FF1FF3
:104400001414FF1FDC0AFF1FFC13FF1F4819FF1FB6
:104410008C76000044760000F878000080380100B7
:10442000BC19FF1FB51C0000411D00007C19FF1FB7
:104430005819FF1F610600007476000030780000F4
:104440005C760000A07600000022802101810271CC
:10445000C280704790F8383090F839209A4205D9D8
:104460005A1C034480F83820187E70474FF0FF3004
:10447000704700BF70B5044640681E4603685B681D
:1044800015469847854201D0002070BD31466068CE
:1044900000F02AFAB0FA80F0400970BD30B400256F
:1044A00020240572C4600170426030BC704700BFB8
:1044B000037A10B5044683B1227863680121520063
:1044C00083F83B2083F85E1083F85D10606800F08D
:1044D0000BFAB0FA80F0400910BD012100F004F899
:1044E0000028E9D110BD00BF38B5044640680D462C
:1044F00000F086F80120207205B938BD2046BDE8DD
:104500003840FFF7D5BF00BF2DE9F041079EC468D2
:10451000DDF818E09519A54219D815460278984695
:1045200043680F4652000121044683F83B2083F87C
:104530005E1083F85D106EB1BEF1000F0AD04068C6
:10454000036871465B6832469847864202D0002075
:10455000BDE8F08143462A4639462046BDE8F04191
:10456000FFF788BF08B5406800F094F8012008BD47
:104570000020704790F8392090F83800101A7047E2
:1045800090F8383090F839209A4286BF1B18187E70
:104590004FF0FF30704700BF704700BF38B5054689
:1045A000B0F85E0090B195F85D301446C3F1210279
:1045B00094420CD805F13B001844224600F08EFAD4
:1045C00095F85D30234485F85D30204638BD0120E4
:1045D00014462871EEE700BFB0F85E306BB190F87A
:1045E0005D30202B07D8C218013380F85D300120E0
:1045F00082F83B107047012303710020704700BF11
:104600000023426980F8383080F8393080F85C3017
:1046100080F85D3080F85E3080F85F3006CA30B4D4
:104620000D68046943662A4383660A60A370426981
:1046300090F861301649146813441D7A5B7B01EBD6
:10464000C5051B026D6803F4E06343F064032B604F
:1046500090F8623013449D7CDB7D01EBC5011B02A9
:10466000496803F4E06343F064030B602168536816
:10467000194205D003692C225A70036904229A71E9
:10468000036920225A71036980229A7030BC7047F6
:10469000F878000043690CCB12681A420CD0094B21
:1046A00099420AD9084B9942036994BF1C221222ED
:1046B0005A70036904229A71704703692C225A7058
:1046C000F7E700BF7F1A06003F420F0038B50269C6
:1046D000D478E4B2E106054624D51023D3706306EE
:1046E0001FD504F0040404F0FF03002C5AD0424903
:1046F0006A6E00230B7085F85D30002A66D0904703
:1047000095F85D30002B61D02B69D0229A702B690F
:1047100095F83B201A712B69012285F85C20022252
:10472000DA7038BD04F0400303F0FF00002BD8D14D
:104730009379DBB203F0600160294ED0937803F0E7
:10474000100303F0FF01B3B114F0010437D195F861
:104750005C3095F85D1099424BD9591C2B4485F873
:104760005C1093F83B3013712B69D0229A702B693F
:104770000222DA70D5E785F86010937943F02003C0
:1047800093712B6995F839101A791F29D2B2C6D8BE
:10479000194800780028C2D06818013185F839100E
:1047A0000276BCE72A6985F83930C02393702B69FB
:1047B000114A1979012111700222DA70B1E7C02380
:1047C00093702B691A790222DA70AAE7012200237A
:1047D00085F85D2085F83B3096E703F0DF039371A1
:1047E000AB6E23B185F8380095F8390098472A69EF
:1047F000A4E71471B8E700BFB819FF1F2DE9F0470F
:10480000374FDFF8E0903B68026982B006460093BC
:10481000DDF800800021C825D3789B065BD53B6876
:104820000193019BC8EB03030F2BF5D949B1102B62
:10483000F2D000209070336980229A7002B0BDE8F7
:10484000F087726996F8613013440521187A00F0F8
:1048500031FD726996F861301344012193F812A07A
:10486000504600F027FD09240021504600F00EFDBF
:104870002B46013BFDD10121504600F007FD2B46A0
:10488000013BFDD1013CEFD1706996F86110014404
:104890004FF4C8720C7A4B7B09EBC4011B024968C8
:1048A00003F4E06343F064030B6096F86230034462
:1048B000997CDB7D09EBC1011B02496803F4E063CD
:1048C00043F064030B60013AFDD13269D3789B0653
:1048D0004FF00101A3D4012002B0BDE8F08700BF72
:1048E000BC1AFF1FF8780000F0B503691222DA70D5
:1048F0000269937803F0200385B004460D46002B2F
:104900005ED0B42393703C4922690B680093009EEB
:1049100005E00B680193019B9B1B042B42D8D378C5
:1049200003F0200303F0FF00002BF2D094F85D3079
:10493000002B31D04FF0000E4FF0020C04EB0E03B1
:1049400093F83B3013710B680393039F206907E0D2
:104950009B060DD50B680293029BDB1B052B28D809
:10496000C378DBB203F0020202F0FF06002AEFD0A8
:1049700080F803C02669F378DBB2DF0632462DD417
:104980009F062BD5DB0731D40EF1010E94F85D3074
:104990005FFA8EFE7345D1D800201DBB002384F83A
:1049A0005E3004E09070236980229A70042005B084
:1049B000F0BD86702369802204209A7005B0F0BD96
:1049C00003F0FF06FFF71AFF10B9042005B0F0BD91
:1049D000236984F85F60B0229A7094E78023B370F3
:1049E0000420DAE726698023B370D7E7BEF1000F11
:1049F0000CBF02200320F6E7BC1AFF1F0148FFF797
:104A000065BE00BF4408FF1F0148FFF75FBE00BF3F
:104A1000B008FF1F0148FFF759BE00BFD807FF1FAE
:104A200000F030B970B40D68064B0468064E6A0A8F
:104A3000A3FB0232D3091C4406FB135304600B6032
:104A400070BC7047834B040000CA9A3B002202608E
:104A5000704700BFF8B5054600680E46174610B10E
:104A6000102101F04BFC102001F046FC31460446B9
:104A70003A46FFF713FD2C6020460121BDE8F840BF
:104A8000FFF732BD70B5054684B00C461646194690
:104A90000068FFF767FDD6B160238DF80C30002366
:104AA000286801930093260901232401032203A906
:104AB0008DF80E408DF80D60FFF726FD044618B105
:104AC00028680549FFF74EFD204604B070BD40231D
:104AD0008DF80C30E3E700BFA086010001B441EA85
:104AE000000313F003036FD1403A41D351F8043B64
:104AF00040F8043B51F8043B40F8043B51F8043BB8
:104B000040F8043B51F8043B40F8043B51F8043BA7
:104B100040F8043B51F8043B40F8043B51F8043B97
:104B200040F8043B51F8043B40F8043B51F8043B87
:104B300040F8043B51F8043B40F8043B51F8043B77
:104B400040F8043B51F8043B40F8043B51F8043B67
:104B500040F8043B51F8043B40F8043B51F8043B57
:104B600040F8043B51F8043B40F8043B403ABDD2C6
:104B7000303211D351F8043B40F8043B51F8043B68
:104B800040F8043B51F8043B40F8043B51F8043B27
:104B900040F8043B103AEDD20C3205D351F8043BF7
:104BA00040F8043B043AF9D204320AD0D2071CBFC1
:104BB00011F8013B00F8013B03D30B7803704B78ED
:104BC000437001BC704700BF0C2A4AD310F00303A6
:104BD00011D0C3F10403D21ADB071CBF11F8013B4B
:104BE00000F8013B07D311F8013B00F8013B11F835
:104BF000013B00F8013B11F003033FF475AF30B403
:104C0000043AC91AC3F1040C51F8044B022B19D011
:104C1000032B0BD0240A51F8043B1D0644EA05047B
:104C200040F8044B1C46043AF4D216E0240E51F826
:104C3000043B1D0244EA050440F8044B1C46043AB8
:104C4000F4D20AE0240C51F8043B1D0444EA0504A4
:104C500040F8044B1C46043AF4D20432B1EB0C0188
:104C600030BC043AA0D3013A11F8013B00F8013BF3
:104C7000F9D20B7803704B7843708B78837001BC4A
:104C8000704700BFF0B585B0102219496846FFF79C
:104C900025FF184A127891071DD51749174D0A7834
:104CA00012F0700218BF0A701549164A0346802791
:104CB00015480F700026122405212E700470117003
:104CC00072B60D4C43F001032046984762B6237834
:104CD00013F0700309D10D4B064901E0013B02D0EE
:104CE0000A78D207FAD505B0F0BD237005B0F0BD43
:104CF000E878000001000240000002400400024089
:104D0000070002400A0002400B000240410D030070
:104D100008B5104C08E0236859050DD423681A051E
:104D20000FD42368DB0411D423685803F3D500F0B3
:104D300063FC23685905F1D500F00EF823681A05C5
:104D4000EFD500F009F82368DB04EDD500F004F896
:104D5000EAE700BF3480044008B5FFF7D9FF00BF81
:104D6000014B10221A80704700200540704700BF99
:104D7000094908B50B6830B16A461844A2F50052DB
:104D8000904202D20860184608BD01F04FFC0C2387
:104D900003604FF0FF3008BD1C09FF1F704700BFC4
:104DA00010B4114B53F8302092F8804234B10123F3
:104DB00079B182F880305DF8044B704703EBC00393
:104DC0005B681A6851B922F002021A605DF8044B60
:104DD000704782F800315DF8044B704742F00302DF
:104DE0001A605DF8044B7047F87800001C4A02EB2B
:104DF000C00301295B6811D004291BD052F8300090
:104E0000002280F8802229B1022920D0032922D053
:104E10001A6070474FF480721A60704752F8300081
:104E20004FF4A27280F880121A601A6822F02002F1
:104E30001A60704752F830104FF4A272012081F8C6
:104E400080021A601A6842F020021A60704740F22D
:104E500003121A6070474FF481721A60704700BFE6
:104E6000F87800003F2848D8F8B5042A44D8DFE88D
:104E700002F0484B4E0345004FF410262B4B03EB3A
:104E8000C0030D465C68216811F4E06148D0284BEE
:104E9000284A2949C3F82C2104F140422748C3F885
:104EA0003411A2F59221264FC3F830017C29254800
:104EB000C3F83871C3F83C012CD9A2F594237C2B9C
:104EC0002AD9A2F596237C2B28D9A2F598237C2BEE
:104ED00029D9A2F59A227C2A27D81B4872B62368C2
:104EE00023F4702343F08072C4F3840116432360DB
:104EF00040F82150266062B6F8BD70474FF4302666
:104F0000BCE74FF40026B9E74FF44026B6E74FF46C
:104F10002026B3E70D48E1E70D48DFE70D48DDE760
:104F2000FFF764FFB3E70C48D8E7F8BDF878000056
:104F30000002FF1FA907FF1F5107FF1F7D07FF1F6B
:104F40002507FF1FF906FF1F680AFF1F2009FF1F23
:104F50009809FF1FF809FF1F280AFF1F30B4054BEF
:104F6000054D064C002210211A602A60206019604D
:104F700030BC704714D0034004D0034000D003403D
:104F8000704700BF38B5A0F14203012B04461FD97A
:104F9000002975DD904B1B78012505FA03F28A4242
:104FA00002D83F2827D938BDC21E012A2BD9A0F12B
:104FB0001D02012A73D90E2856D9A4F12302032A0F
:104FC00057D9864A126802FB011222FA03F320E045
:104FD000814B1B780B2B0AD90C2B1CBF0C3B1941A6
:104FE000422C084657D0BDE8384001F09BBAC3F1C7
:104FF0000C039940F4E72946FFF7D2FE2946BDE8A5
:105000003840FFF7F3BE764A126802FB011222FA1B
:1050100003F3A21E242A00F2D580DFE812F0CC00B0
:10502000C500BE00B700B000A900A2009B0094001C
:10503000D300D300D3008D00D300D300D300D3001E
:10504000D30086007F0078007100D300D300D30026
:10505000D300D3006A006300D300D300D300D30091
:105060005C0055004E00470044F28412C240D20753
:10507000A3D55C4A126802FB011222FA03F3C8E7C7
:105080003F2890D80021FFF78BFE20460121BDE884
:105090003840FFF7ABBEBDE8384001F025BA524AB0
:1050A000126802FB011222FA03F3B2E74F49504A99
:1050B0000B604FF45173136038BD4E494E4A0B607C
:1050C0004FF45173136038BD4C494D4A0B604FF497
:1050D0005173136038BD4B494B4A0B604FF4517309
:1050E000136038BD49494A4A0B604FF4517313604D
:1050F00038BD4849484A0B604FF45173136038BDBE
:105100004649474A0B6040F24443136038BD454965
:10511000454A0B6040F24443136038BD4349444A5A
:105120000B6040F24443136038BD4249424A0B6071
:1051300040F24443136038BD4049414A0B6040F29D
:105140004443136038BD3F493F4A0B6040F244433B
:10515000136038BD3D493E4A0B6040F24443136042
:1051600038BD3C493C4A0B6040F24443136038BDB3
:105170003A493B4A0B6040F24443136038BD394919
:10518000394A0B6040F24443136038BD3749384A0E
:105190000B6040F24443136038BD3649364A0B6019
:1051A0004FF45173136038BD3449354A0B604FF4E6
:1051B0005173136038BD3349334A0B6040F24443A6
:1051C000136038BD3F2C3FF6EEAE7F29D4BF0021DF
:1051D0000121204657E700BFD40AFF1F0880034083
:1051E0000890034008900B4008800B4048900B400B
:1051F0002CB0044040900B4028B0044038900B4045
:1052000024B0044030900B4020B0044018800B4084
:105210004CA0044010800B4048A00440188003407C
:1052200008B004401080034004B0044040800340B4
:1052300018C004403880034014C0044018900B404C
:1052400004C004402880034010B004402080034084
:105250000CB0044028900B400CC0044020900B4040
:1052600008C004403080034010C004404880034020
:105270001CC0044018900340349004401090034038
:105280003090044010900B4000C004403F2801D8EB
:10529000FFF786BD704700BF3F2806D8044B53F880
:1052A000303093F80002C0B270470020704700BF52
:1052B000F87800003F2801D8FFF798BD704700BF7D
:1052C0002DE9F843054672B6204F214B214A1B6851
:1052D0003C68126862B6520102D5322B88BF013495
:1052E00095B3C3F5EA331C4EDFF86490DFF86480B1
:1052F000BF334FF47A72A6FB031302FB04F404EBF2
:10530000931472B6D9F800103A68D8F800E062B683
:10531000C1F5EA33BF33A6FB03031EF0806FC4EB75
:1053200093134FF47A7002D0322988BF013200FB08
:105330000233B3F57A7F04D3013D05D004F57A74C6
:10534000DFE700F0EBFFDCE7BDE8F883BC1AFF1FE6
:1053500018E000E004ED00E089888888F8B53F4B4C
:105360003F49DFF81CC13F4E3F4ADFF818E13F4D8F
:105370003F4C404F4FF0006018604FF08050186075
:105380004FF0005018604FF0804018604FF0004020
:1053900018600020086028234EF6FF71CCF800103A
:1053A000CEF8003033600EF5012E13602B602360C1
:1053B00005F500253B6004F50024B36207F50027DE
:1053C000936206F5012602F501220EF1100E05F694
:1053D000E87504F6E87407F57F67103220362B6015
:1053E0002360CEF800303B6013603360224EBB6117
:1053F000936109223260A7F5002706F58056203F09
:10540000083638603160BB60F36047F8042C06F55D
:10541000FD2607F5FE2706F2FC760437306039607A
:10542000B360FB6046F8042C0836C7F8FC0F06F69C
:10543000FC76124831602B602360026000F0E4FFCC
:10544000FFF79EFD1420FFF73BFF00F00FFD4FF428
:105450008C70BDE8F840FFF733BF00BF04E100E007
:1054600004800340148003401C80034024800340D8
:105470002C800340348003400080034000900B40A8
:10548000088003400C800340431E032B14D872B6DF
:105490000A4951F8230068B170B4094C058834F802
:1054A0001320466841F82360521B24F8132062B68B
:1054B00070BC704762B6704700207047181BFF1F12
:1054C000201CFF1F013803280BD872B6074B53F876
:1054D000203043B100205B680130002BFBD162B665
:1054E0007047002070471846F9E700BF6C1BFF1F8C
:1054F000F0B472B61A491B4E012311F8014B194F33
:105500009A00240742F0010505D556F8324064B1EF
:1055100056F83520BAB10133052BEED162B6124BE5
:1055200000221A70F0BC00F023BD0F4C0F4D217803
:1055300007EB4313083001395860217047F83250A7
:1055400062B6F0BC7047084A0949137807EBC504F6
:105550000830013B6060137047F8351062B6F0E721
:10556000207B00000000FF1F951BFF1F88004000EC
:10557000C8004000431E032B1DD81B4A400140F0C9
:10558000100030B4104472B6184CE25C032A1BD8E9
:10559000DFE802F00212151703220D88E25410F022
:1055A000080F14BFC823882343EA0543083141602C
:1055B000036062B630BC704708300222EDE7052276
:1055C000EBE708300422E8E7094A52F8230038B133
:1055D000084A52F82300416042F8231062B6E9E716
:1055E00042F82310034AF7E70000FF1FA41BFF1F28
:1055F0006C1BFF1F7C1BFF1F2DE9F04FDFF814B35E
:10560000DFF814A387B044E0AD4F4FEA930807EBEF
:10561000C809013ED9F8042003F00803F6B2A2F14C
:10562000080003F0FF04002B40F0038157F83830E6
:105630001B0C99B222F8081C002B00F0F180A14B42
:1056400022F8064C42F8044C53F82620002A00F0B9
:105650006C819D4D55F8263058609C4C45F82600CD
:1056600034F81630194424F8161000F061FC0028B4
:1056700000F05481964A974B19F0080F00F108008A
:1056800018BF1346C9F8040047F8383008238BF8D0
:1056900000309BF80040E4B260071BD58E4B1B78AE
:1056A000ABB18E490A7802F0FF032AB1013BDBB2AD
:1056B0000B70002B00F0B58389490A7802F0FF03D4
:1056C0002AB1013BDBB20B70002B00F0F680042303
:1056D0008BF8003004F0080303F0FF02002B00F009
:1056E000D5809AF80030DBB21E098DD19C08744F2A
:1056F00057F8342007EBC401C2F38302013A49682A
:105700000C2A7ED8DFE802F081817D7D7D7D7D7D64
:10571000427D7D7D07000868724B734D01936C4B91
:105720004A68724E47F8343081B240F281646D4B62
:105730006A60286000220120A1423A611A60BA61C1
:10574000307000F2F680B1F5D06F80F0E882B1F5EC
:10575000817F00F0D38200F2D881802900F04D8152
:10576000822940F09282A988614B01F07F010429CF
:1057700000F28C825F4C89000B44227062701A78B0
:10578000930740F13883207002203AE1554B019392
:105790001A6862B3584B5949544E18880C7896F8D9
:1057A00000E04028054684F0010C28BF402544F065
:1057B0000204BEF1000F81F800C0A0EB050007EB6A
:1057C000C40C0CBF8821C82180B28EF0010E41EAC2
:1057D0000541CCF80420188086F800E02A4447F8F8
:1057E000341010B9402D18BF0022019B1A603E4BA7
:1057F0001A88B2F5A06F04D100219A785970404BF5
:105800001A70404A0123137040E7374A158842F264
:105810002100854200F052812D4A47F83420F0E7FC
:105820002B4A2C4B19F0080F18BF134647F8383095
:105830002CE700F09DFB344A344952F82630002B07
:1058400000F02D8158688C5D42F8260003F10802B3
:10585000C9F80420032C05D8DFE804F0120F150264
:1058600004228A551A8819F0080F0CBF8823C82310
:1058700043EA024347F8383008E702228A55F1E745
:1058800003228A55EEE705228A55EBE7E00700F18F
:105890007881210600F1A281A20706D51C4A1D4984
:1058A00013780220DBB213700870E30602D5194B9F
:1058B00010221A7007B0BDE8F08F00F0C5FC06E7B3
:1058C0000000FF1F181BFF1FC41AFF1F201CFF1F13
:1058D000C800400088004000A01BFF1F291BFF1FBD
:1058E000A81BFF1FC01AFF1F8C1BFF1F281BFF1FB9
:1058F000C0200740981BFF1FD41AFF1F941BFF1FD7
:1059000098200740942007406C1BFF1FA41BFF1F1B
:10591000882007408020074090200740B74A47F87A
:105920003800137801331370B0E643F82600B44D05
:1059300093E642F22104A14200F0AD8000F20E8114
:10594000B1F5086F00F05481B1F5106F40F09D8102
:10595000AC4AA9781170AC4D042402E00134142C37
:105960000CD057F834301906F8D505EBC4030134D0
:105970005868083800F0FCFA142CF2D1A349A44B63
:10598000A44A0291A449A54C9D4D039405964FF05D
:10599000000988461C4616460495206828B14568CB
:1059A00000F0E6FA2846002DF9D100232360049B7D
:1059B00030681A46002342F8293028B1456800F0C3
:1059C000D7FA2846002DF9D100223260029A98F8C1
:1059D00000301146002241F8042B039A0291023B49
:1059E0004FF0000122F81910032B00F2B481DFE818
:1059F00013F0E201AE01E201AE01894C02202270F7
:105A00006270EA88824280F00D8286490D78402AD1
:105A100045F0020E944607EBCE0028BF4FF0400C35
:105A200004EB0C0344600293CCEB02004FEA0C48F9
:105A30004FF001090022C82444EA080385F001045C
:105A400047F83E3032700C70DFF8BCE1764BDFF87F
:105A5000D481002840F02081BCF1400F1BD144F0DC
:105A6000020407EBC403029FDFF89CE15F60002A99
:105A700040F02781020442F0880286F800900D7001
:105A800007444EF834203B46402804D10020674AA2
:105A9000019910800B60664A01231370B1E68B5D9B
:105AA000032B00F2248101A252F823F08D5600004E
:105AB0008D560000D15B0000D75B0000928862B970
:105AC0005C4ACD1D11F8013B02F8013F8D42F9D12E
:105AD000594A1268862A00F0C9805249524E087805
