:10000000F8FF022099010000A54900005D490000A9
:100010005D4900005D4900005D4900005D49000048
:100020005D4900005D4900005D490000A5490000F0
:10003000A54900005D490000255E0000295E000022
:10004000A5490000A5490000A5490000A5490000F8
:10005000A5490000A5490000A5490000A5490000E8
:10006000A5490000A5490000A5490000A5490000D8
:10007000A5490000A5490000A5490000A5490000C8
:10008000A5490000A5490000A5490000A5490000B8
:10009000A5490000A5490000A5490000A5490000A8
:1000A000B9430000C5430000A5490000A549000070
:1000B000A5490000A5490000A5490000A549000088
:1000C000A5490000A5490000A5490000A549000078
:1000D000A5490000A5490000A5490000A549000068
:1000E000A5490000A5490000A5490000A549000058
:1000F000A5490000A5490000A5490000A549000048
:10010000A5490000A5490000A5490000A549000037
:100110003946000049510000A5490000A5490000EA
:10012000A5490000A5490000A5490000A549000017
:10013000A5490000A5490000A5490000A549000007
:10014000A5490000A5490000A5490000A5490000F7
:10015000A5490000A5490000A5490000A5490000E7
:10016000A5490000A5490000D1430000A5490000B1
:10017000A5490000A5490000A5490000A5490000C7
:10018000A5490000A5490000A5490000A5490000B7
:10019000A5490000A5490000584B4CF2205210B56B
:1001A0001A804DF628121A8000BF00BF04F0FEFB33
:1001B000534B4FF030621A60524A9A60524ADA60EA
:1001C000524B4FF470021A60514A136813F4807353
:1001D00004D150490B604FF4A85313604E4B1A786A
:1001E000110703D51A7842F008021A704B4B4C499C
:1001F0002A221A704B4A4C4B8B4204D252F8040FFD
:1002000043F8040BF8E7494B494900228B4202D2DC
:1002100043F8042BFAE74749474A002352F82300E2
:1002200041F823000133662BF8D1444B444A802126
:1002300003F8011B9342FBD1424B3E4A1A60424BEA
:100240008A221A70A3F5805324225A70A0221A70B1
:100250009A799207FCD59A79D406FCD43B4A9379D3
:1002600003F00C03082B394BF9D103221A714622F3
:100270005A719A799006FCD5344A9179334B4906E4
:10028000FBD5334A4FF08271116009215160202261
:100290001A709A7902F00C020C2AFAD12D4B2E4AD0
:1002A0001A602E4B2E4A1A6000225A60072243F829
:1002B000042C2C4AC3F80C2D62B604F0F7FD154B44
:1002C0001B68DA0705D5284804F0F0FB274B284ABD
:1002D0001A60284B1B785B0609D5244C244B2268F6
:1002E0009A4204D1204804F0E1FB0023236004F08B
:1002F00063FB06F065FD05F09FFDFEE70E2005405F
:1003000030800440823F04000100002B88ED00E0B3
:1003100010D0034014D0034002D0074000E0074053
:10032000B812FF1FE8B50000F806FF1FB812FF1F44
:10033000E41AFF1F0002FF1F0000000000E400E0BD
:1003400056E400E008ED00E00050064000400640A2
:100350004480044004800440C010050014E000E024
:10036000BFD40100000020205790EE621CE0034043
:10037000A5C3945A00F00740FFFFFFFFFFFFFFFFF8
:10038000FFFFFFFFFFFFFFFFFFFFFFFFFFFFFFFF7D
:10039000FFFFFFFFFFFFFFFFFFFFFFFFFFFFFFFF6D
:1003A000FFFFFFFFFFFFFFFFFFFFFFFFFFFFFFFF5D
:1003B000FFFFFFFFFFFFFFFFFFFFFFFFFFFFFFFF4D
:1003C000FFFFFFFFFFFFFFFFFFFFFFFFFFFFFFFF3D
:1003D000FFFFFFFFFFFFFFFFFFFFFFFFFFFFFFFF2D
:1003E000FFFFFFFFFFFFFFFFFFFFFFFFFFFFFFFF1D
:1003F000FFFFFFFFFFFFFFFFFFFFFFFFFFFFFFFF0D
:10040000FFFFFFFFFFFFFFFFFFFFFFFFDEF9FFFF23
:1004100010B5054C237833B9044B13B10448AFF33E
:1004200000800123237010BDB812FF1F00000000E0
:10043000E4B50000084B10B51BB108490848AFF3FC
:1004400000800848036803B910BD074B002BFBD0A0
:10045000BDE81040184700BF00000000BC12FF1F9D
:10046000E4B50000B812FF1F0000000043680B70E5
:1004700043681B0A4B70C3888B70C379CB70836849
:100480000B7183681B0A4B7143898B71C37ACB71E3
:10049000082070470B7843604A7843EA02234360A0
:1004A0008A7843EA02434360CA7843EA02634360BE
:1004B0000B7983604A7943EA022383608A7943EAAD
:1004C00002438360CA7943EA02638360082070476D
:1004D000004870479CAD000000487047ACAD00007C
:1004E000F0B50C460A788280064614F8010F002306
:1004F00042EA0022B2801A4614F8010F98400833ED
:10050000202B42EA0002F7D1971D062F58D901F19E
:10051000050E551D73464C1913F8010F03F8010C15
:10052000A342F9D100234B5518460D44C6F808E004
:1005300015F8014F84400830202843EA0403F7D11E
:10054000381D0344834209D909320A440446013460
:1005500012F8015F02F8015CA342F8D80138CF1805
:100560000024084407F8014C2246F06017F8015BAC
:1005700095400832202A44EA0504F7D1181D0444A6
:10058000A04209D203330B440246013213F8015F43
:1005900003F8015CA242F8D30D1901380844002386
:1005A00005F8013C3061A8786B780A5DED780104AC
:1005B00041EA0323134343EA0563201D7361F0BD41
:1005C000551D01F1050EADE700487047D0AD0000A4
:1005D00000487047ECAD00000B78F0B403710023C5
:1005E00006460C461D4614F8012F9A400833202B6E
:1005F00045EA0205F7D1681D052801F1040708D96D
:100600002C1D3B460C4413F8012F03F8012C9C428F
:10061000F9D10D4400232B71B760F0BC704700BFC7
:100620000048704710AE00000048704724AE00003C
:100630000048704708B000000048704748AE00000E
:10064000004870476CAE00000048704784AE000060
:1006500000487047A8AE000000487047BCAE0000DC
:1006600003790B70012070470B78037101207047EC
:1006700000487047E0AE000000487047F0AE000050
:1006800043680B7010B4180C1C0A1A0E4C7088705A
:10069000CA7004205DF8044B704700BF10B44C785A
:1006A0000A788B78C97842EA042242EA034343EA93
:1006B000016343605DF8044B0420704700487047B5
:1006C00014AF00000048704724AF000070B4164B10
:1006D000D0ED025A1B6890ED036AD0ED046A90EDEC
:1006E000067AD0ED077A114D114C12481249134A7F
:1006F00083B0FDEEE55A0193019E114B2E60BDEED5
:10070000C66AFDEEE66ABDEEC77AFDEEE77AC4ED95
:10071000005A80ED006AC1ED006A82ED007AC3EDF7
:10072000007A03B070BC70476819FF1FD412FF1F16
:10073000F806FF1FD812FF1F2013FF1F1C13FF1FF7
:100740002C13FF1F014B42681A6070476418FF1F8B
:1007500090ED027AD0ED037A054A064BBDEEC77ADA
:10076000FDEEE77A82ED007AC3ED007A704700BFB4
:100770008418FF1FFC06FF1F30B44D780A788B7871
:10078000CC78416942EA052242EA034343EA046322
:10079000036130BC0C3008478069704700487047DF
:1007A00014AF00000048704724AF0000406B704752
:1007B00000487047A8AE000000487047BCAE00007B
:1007C00090F8F804704700BF05F0A0B943682DE920
:1007D000F0470B7043681B0A4B70C3888B70C3795A
:1007E000CB704368002B00F085800A460025042664
:1007F000C36853F8253013711C0C1F0A1B0E94712B
:100800005771D37143680135AB42344602F104029B
:1008100006F10406ECD804F1080204F1050A04F11B
:10082000060904F1070804F1090C04F10A0E04F1A9
:100830000B0517460C3403698B5503691B0A01F835
:100840000A30438A01F80930C37C01F80830036993
:10085000F3B101EB070E75460022836953F822308D
:100860000EF822301C0C1E0A1B0EAC706E70EB7062
:100870000369013293423C4605F1040507F1040780
:10088000EBD804F1050C04F1060EE51D3A460834D8
:10089000C3698B54C3691B0A01F80C30C38B01F880
:1008A0000E30C37F4B55C3690BB30F4680460026FD
:1008B000D8F8243053F8260007F082F8B100054636
:1008C0003A19002325FA03F00833202B02F8010B14
:1008D000F8D1D8F824300434381959582A4603F08E
:1008E00023FFD8F81C300136B3422C44E0D8204610
:1008F000BDE8F087082217460C240B254FF00A0E9E
:100900004FF0090C4FF007084FF006094FF0050AA9
:10091000042690E770B503790B70064680680D4693
:1009200007F04EF82A460446002324FA03F1083360
:10093000202B02F8011FF8D1B168681D224603F090
:10094000F3FE601D70BD00BFF8B583880B7083880F
:100950001B0A4B70064680680D4607F031F8030EFF
:10096000010A020C6B71A8702A71E97002460446F4
:10097000B168A81D03F0D8FEF06807F021F8611DEA
:10098000024629440634002322FA03F00833202BC0
:1009900001F8010FF8D104342819F168144403F068
:1009A000C3FE306907F00CF82A190746002327FA1E
:1009B00003F10833202B02F8011BF8D10434281965
:1009C0003A46316903F0B0FE381973692B54054477
:1009D000190A1A0C1B0E6970AA70EB700430F8BD6E
:1009E0000846114605F0F8B82DE9F04F0A784B7823
:1009F0008C78054642EA0323C8780E4643EA04434E
:100A0000696843EA00648C4283B000F2BA806C608B
:100A1000002C00F0BF8005F10809344600274FF094
:100A20000408A1796379227994F807E0E868090459
:100A300041EA0323134343EA0E63AB6000EB8700F4
:100A40000422494603F070FE6B680137BB42424600
:100A500004F1040408F10408E3D802F10807414650
:100A6000B94602F1050E901DD31D02F1090B02F1EA
:100A70000A0802F10B0A02F10C04305C16F80E2091
:100A8000715C16F803E02B69000440EA02220A4375
:100A900042EA0E629A4200F292802A614AB305F15C
:100AA000140A06EB09074FF00008B9787B783A780A
:100AB000FC78A869090441EA0323134343EA046369
:100AC0006B6100EB88000422514603F02DFE2B6978
:100AD00008F1010843454C4607F1040709F10409F0
:100AE000E3D804F1050B04F1060804F1070A4F46A8
:100AF000083416F8082016F80B00F35D16F80A7093
:100B0000E969120442EA0022134343EA07678F426D
:100B10004FD8EF618FB34FF00009C84605F12007A9
:100B200000239E46311911F8012B9A400833202BDF
:100B30004EEA020EF7D1201D8644704509D2E31C0F
:100B400033440246013213F8011F03F8011C7245B9
:100B5000F8D306EB0E02431E02F8018C686A334498
:100B60002B6200EB890004223946744603F0DCFD59
:100B7000EB6909F101094B45D2D8204603B0BDE825
:100B8000F08FA100E86806F0D7FC6C60E860002CEC
:100B90007FF441AF0827B9460C244FF00B0A4FF001
:100BA0000A084FF0090B072306204FF0050E042119
:100BB00063E7B900686A06F0BFFC6862A9E79100C4
:100BC000A869019206F0B8FC019AA86165E700BF28
:100BD0002DE9F04191F807E00E798B794F790546C0
:100BE0004FEA0E12C87802F4FE6236010C4646EA5D
:100BF0001010190542EA131340F2FF7240EA073061
:100C000001F47001934241EA000182B005F10C0742
:100C100005F1140000F0A18140F27E46B3421AB201
:100C200043D94FF0FF4200232EF07F0E134302AE54
:100C300043EA0E6346F8043D0422314603F074FD96
:100C400094F80FC094F80CE0A37BE07A94F80D8040
:100C50004FEA0C1202F4FE624FEA0E1E19054EEA2C
:100C6000101042EA131340F2FF7240EA083001F418
:100C70007001934241EA000105F1180000F064811F
:100C800040F27E4E73451AB21FD8B2F5607F00F372
:100C90009A81B2F55A7F40F3A981C2F560720132A0
:100CA00041F08071D140002250E1B2F5607F00F345
:100CB0006F81B2F55A7F40F39381C2F560720132C1
:100CC00041F08071D140002249E14FF0FF42002302
:100CD0002CF07F0C134343EA0C630422314601934A
:100CE00003F022FD94F817C094F814E0A37DE07C93
:100CF00094F815804FEA0C1202F4FE624FEA0E1EC1
:100D000019054EEA101042EA131340F2FF7240EA4E
:100D1000083001F47001934241EA000105F11C0022
:100D200000F0098140F27E4E73451AB20FD8B2F539
:100D3000607F00F33681B2F55A7F40F35381C2F5EC
:100D40006072013241F08071D1400022F5E04FF035
:100D5000FF4200232CF07F0C134343EA0C63042270
:100D60003146019303F0E0FC94F81FC094F81CE0B6
:100D7000A37FE07E94F81D804FEA0C1202F4FE621D
:100D80004FEA0E1E19054EEA101042EA131340F204
:100D9000FF7240EA083001F47001934241EA000119
:100DA00005F1240000F0BE8040F27E4E73451AB279
:100DB0000FD8B2F5607F00F3FD80B2F55A7F40F3A3
:100DC0001381C2F56072013241F08071D14000227E
:100DD000AAE04FF0FF4200232CF07F0C134343EABC
:100DE0000C6304223146019303F09EFC94F827C063
:100DF00094F824E094F8263094F8230094F82580A1
:100E00004FEA0C1202F4FE624FEA0E1E19054EEA7A
:100E1000101042EA131340F2FF7240EA083001F466
:100E20007001934241EA000105F1280071D040F2BF
:100E30007E4E73451AB20FD8B2F5607F00F39F80E3
:100E4000B2F55A7F40F3CA80C2F56072013241F0B8
:100E50008071D14000225EE04FF0FF4200232CF071
:100E60007F0C134343EA0C6304223146019303F0E1
:100E70005BFC94F82C2094F82FE094F82E3094F832
:100E80002B0094F82DC014014FEA0E1202F4FE62FA
:100E9000190544EA101042EA131340F2FF7240EAC7
:100EA0000C3001F47001934241EA000105F12C007D
:100EB00026D040F27E44A3421AB20ED8B2F5607F2B
:100EC00054DCB2F55A7F40F38780C2F5607201327C
:100ED00041F08071D140002214E04FF0FF42002326
:100EE0002EF07F0E134343EA0E6331460422019332
:100EF00003F01AFC2B6B384602B0BDE8F0411847EE
:100F00004FF0FF426FF07F43994236D04B1C5B0895
:100F1000E6E74FF0FF426FF07F43994236D04B1C1B
:100F20005B089CE74FF0FF426FF07F43994248D047
:100F30004B1C5B0850E74FF0FF426FF07F43994234
:100F400036D04B1C5B0805E74FF0FF426FF07F4344
:100F500099423FD04B1C5B08BAE64FF0FF426FF05E
:100F60007F4399421BD04B1C5B085DE6A3F5607381
:100F7000DA056FF07F439942C8D11D4BB0E7A3F566
:100F80006073DA056FF07F439942C8D1184B66E76A
:100F9000A3F56073DA056FF07F439942E3D1144BF8
:100FA00042E6A3F56073DA056FF07F439942C8D13A
:100FB0000F4BCFE6A3F56073DA056FF07F439942DC
:100FC000B6D10B4B08E7A3F56073DA056FF07F43EA
:100FD0009942BFD1064B7BE6002293E700229AE7B5
:100FE0000022BCE70022A8E700229DE70022ADE72F
:100FF000FFFF7F00F0B5CF790D798B7991F805E08F
:1010000006463A01C87802F4FE622D010C4645EA14
:101010001010190542EA131340F2FF7240EA0E3035
:1010200001F47001934241EA000183B006F1080027
:1010300000F0968140F27E45AB421AB241D94FF0A2
:10104000FF42002327F07F07134302AD43EA076303
:1010500045F8043D0422294603F066FB94F80FE0AE
:10106000277BA37BE07A94F80DC04FEA0E1202F4BE
:10107000FE623F01190547EA101042EA131340F2DD
:10108000FF7240EA0C3001F47001934241EA000122
:1010900006F10C0000F05B8140F27E47BB421AB2C1
:1010A0001FD8B2F5607F00F39181B2F55A7F40F30B
:1010B000A081C2F56072013241F08071D1400022FE
:1010C00047E1B2F5607F00F36681B2F55A7F40F3E5
:1010D0008A81C2F56072013241F08071D1400022F4
:1010E00040E14FF0FF4200232EF07F0E134343EA0E
:1010F0000E6304222946019303F016FB94F817E0CF
:10110000277DA37DE07C94F815C04FEA0E1202F40F
:10111000FE623F01190547EA101042EA131340F23C
:10112000FF7240EA0C3001F47001934241EA000181
:1011300006F1100000F0028140F27E47BB421AB275
:101140000FD8B2F5607F00F32F81B2F55A7F40F3DC
:101150004C81C2F56072013241F08071D1400022B1
:10116000EEE04FF0FF4200232EF07F0E134343EAE0
:101170000E6304222946019303F0D6FA94F81FE087
:10118000277FA37FE07E94F81DC04FEA0E1202F481
:10119000FE623F01190547EA101042EA131340F2BC
:1011A000FF7240EA0C3001F47001934241EA000101
:1011B00006F1180000F0B98040F27E47BB421AB237
:1011C0000FD8B2F5607F00F3F880B2F55A7F40F394
:1011D0000E81C2F56072013241F08071D14000226F
:1011E000A5E04FF0FF4200232EF07F0E134343EAA9
:1011F0000E6304222946019303F096FA94F827E03F
:1012000094F8247094F8263094F8230094F825C0BC
:101210004FEA0E1202F4FE623F01190547EA101070
:1012200042EA131340F2FF7240EA0C3001F47001FD
:10123000934241EA000106F11C006DD040F27E4766
:10124000BB421AB20FD8B2F5607F00F39B80B2F5B3
:101250005A7F40F3C680C2F56072013241F080715E
:10126000D14000225AE04FF0FF4200232EF07F0EC3
:10127000134343EA0E6304222946019303F054FA10
:1012800094F82F7094F82C0094F82B1094F82E30CA
:1012900094F82DE03A0102F4FE62000140EA1110D8
:1012A000190542EA131340F2FF7240EA0E3401F4CA
:1012B0007001934206F1200041EA040123D040F27C
:1012C0007E44A3421AB20ED8B2F5607F51DCB2F56B
:1012D0005A7F40F38480C2F56072013241F0807120
:1012E000D140002211E04FF0FF42002327F07F079A
:1012F000134343EA076329460422019303F014FAD7
:10130000302003B0F0BD4FF0FF426FF07F439942B1
:1013100036D04B1C5B08E9E74FF0FF426FF07F438C
:10132000994236D04B1C5B08A0E74FF0FF426FF0AC
:101330007F43994248D04B1C5B0855E74FF0FF4272
:101340006FF07F43994236D04B1C5B080CE74FF09F
:10135000FF426FF07F4399423FD04B1C5B08C3E6CE
:101360004FF0FF426FF07F4399421BD04B1C5B084C
:1013700068E6A3F56073DA056FF07F439942C8D140
:101380001D4BB3E7A3F56073DA056FF07F43994215
:10139000C8D1194B6AE7A3F56073DA056FF07F4394
:1013A0009942E3D1144B4DE6A3F56073DA056FF073
:1013B0007F439942C8D1104BD6E6A3F56073DA0596
:1013C0006FF07F439942B6D10B4B0DE7A3F56073E5
:1013D000DA056FF07F439942BFD1074B84E60022C4
:1013E00093E700229AE70022BCE70022A8E7002248
:1013F0009DE70022ADE700BFFFFF7F00F0B5CF798A
:101400000D798B7991F805E006463A01C87802F427
:10141000FE622D010C4645EA1010190542EA13132D
:1014200040F2FF7240EA0E3001F47001934241EA4B
:10143000000183B006F1040000F0B28040F27E4566
:10144000AB421AB240D94FF0FF42002327F07F078A
:10145000134302AD43EA076345F8043D04222946DD
:1014600003F062F994F80FE0277BA37BE07A94F80D
:101470000DC04FEA0E1202F4FE623F01190547EA61
:10148000101042EA131340F2FF7240EA0C3001F4EC
:101490007001934241EA000106F1080077D040F262
:1014A0007E47BB421AB21ED8B2F5607F00F393802C
:1014B000B2F55A7F40F39880C2F56072013241F074
:1014C0008071D140002264E0B2F5607F7ADCB2F531
:1014D0005A7F40F38D80C2F56072013241F0807115
:1014E000D14000225EE04FF0FF4200232EF07F0E3D
:1014F000134343EA0E6304222946019303F014F9CF
:10150000E77D207DE17CA37D94F815E03A0102F4AB
:10151000FE62000140EA1110190542EA131340F27D
:10152000FF7240EA0E3401F47001934206F10C00A0
:1015300041EA040122D040F27E44A3421AB20DD8FF
:10154000B2F5607F35DCB2F55A7F4FDDC2F56072CF
:10155000013241F08071D140002211E04FF0FF4292
:10156000002327F07F07134343EA07632946042239
:10157000019303F0D9F8182003B0F0BD4FF0FF42FB
:101580006FF07F4399421BD04B1C5B08E9E74FF09B
:10159000FF426FF07F43994224D04B1C5B08A5E7C4
:1015A0004FF0FF426FF07F43994212D04B1C5B0813
:1015B0004CE7A3F56073DA056FF07F439942E3D1FE
:1015C0000C4BCEE7A3F56073DA056FF07F439942C9
:1015D000ECD1084B3AE7A3F56073DA056FF07F436F
:1015E0009942DAD1034B81E70022D2E70022C7E714
:1015F0000022D7E7FFFF7F00F0B585B02D4B0268D2
:1016000001932D49039103238DF8083014682B4A68
:10161000944240D100243822054680F8233280F8D5
:10162000242280F8254280F8264280F8274200F5DF
:101630000A7003F079F8FF273D20C223FE26072118
:1016400085F81E0285F8203285F81F4285F822426F
:10165000224685F81C7285F81D6285F8211205F274
:10166000212305F25F2001E013F8011F83420A44A1
:10167000FAD1D2436C6885F860222368104A5B680F
:10168000934205F507700DD1452104F0A5FA4FF0FE
:10169000FF3005B0F0BD01AA0721A0474FF0FF3091
:1016A00005B0F0BD01464522204698474FF0FF3077
:1016B00005B0F0BDD0AC000048AF0000791D0000BF
:1016C000E1090000D0ED027A17EE903AC3F3C75259
:1016D000FF2AF0B4C3F3160300F0FD81002A00F0E6
:1016E000128102F56072DC0C44EA02145E01C3F35D
:1016F000C707E4B2C2F30712F6B2C3F3C723F5EE8D
:10170000C07AF1EE10FA4FF0000548BF62F07F0298
:101710004B71CA71CE700F718C710D704D708D70E0
:10172000D0ED037A17EE903AC3F3C752FF2AC3F302
:10173000160300F0C581002A00F0038102F56072F3
:10174000DC0C44EA02145E01C3F3C707E4B2C2F33F
:101750000712F6B2C3F3C723F5EEC07AF1EE10FA22
:101760004FF0000548BF62F07F024B73CA73CE7220
:101770000F738C730D724D728D72D0ED047A17EE6B
:10178000903AC3F3C752FF2AC3F3160300F07781E0
:10179000002A00F04D8102F56072DC0C44EA02146C
:1017A0005E01C3F3C707E4B2C2F30712F6B2C3F394
:1017B000C723F5EEC07AF1EE10FA4FF0000548BFEE
:1017C00062F07F024B75CA75CE740F758C750D74FF
:1017D0004D748D74D0ED067A17EE903AC3F3C7526C
:1017E000FF2AC3F3160300F03F81002A00F00381B3
:1017F00002F56072DC0C44EA02145E01C3F3C70711
:10180000E4B2C2F30712F6B2C3F3C723F5EEC07A0F
:10181000F1EE10FA4FF0000548BF62F07F024B77FF
:10182000CA77CE760F778C770D764D768D76D0EDA4
:10183000077A17EE903AC3F3C752FF2AC3F3160391
:1018400000F03381002A00F0B88002F56072DC0CF1
:1018500044EA02145E01C3F3C707E4B2C2F30712FD
:10186000F6B2C3F3C723F5EEC07AF1EE10FA4FF0EB
:10187000000548BF62F07F0281F8253081F82720FB
:1018800081F8236081F8247081F8264081F8205087
:1018900081F8215081F82250D0ED087A17EE903A65
:1018A000C3F3C752FF2AC3F3160300F0F380002AE4
:1018B00065D002F56072D80C40EA02105D01C3F3F6
:1018C000C706C0B2C2F30712EDB2C3F3C723F5EEE9
:1018D000C07AF1EE10FA4FF0000448BF62F07F02C8
:1018E00081F82B5081F82C6081F82E0081F8284077
:1018F00081F8294081F82A40302081F82D3081F884
:101900002F20F0BC7047002B00F009815B001C0207
:1019100000F10D814FF46072013A5B0094B21F0236
:1019200022B2F9D52401E4B2C2F30612C3F31603BE
:101930005E0144EAD344C3F3C707F6B2C3F3C72337
:10194000DDE6002B00F0E6805B001E0200F1F28075
:101950004FF46072013A5B0094B21D0222B2F9D5D5
:101960002401E4B2C2F30612C3F316035E0144EA93
:10197000D344C3F3C707F6B2C3F3C723ECE6002B87
:1019800000F0C3805B001D0200F1D7804FF460724D
:10199000013A5B0090B21C0202B2F9D50001C0B25C
:1019A000C2F30612C3F316035D0140EAD340C3F34A
:1019B000C706EDB2C3F3C72389E7002B00F0A08070
:1019C0005B001F0200F1BC804FF46072013A5B00C3
:1019D00094B21E0222B2F9D52401E4B2C2F3061277
:1019E000C3F316035E0144EAD344C3F3C707F6B258
:1019F000C3F3C72337E7002B7DD05B001E0200F145
:101A0000A2804FF46072013A5B0094B21D0222B2D0
:101A1000F9D52401E4B2C2F30612C3F316035E0142
:101A200044EAD344C3F3C707F6B2C3F3C723EDE6D2
:101A3000002B5BD05B001C0276D44FF46072013A3D
:101A40005B0094B21F0222B2F9D52401E4B2C2F3C2
:101A50000612C3F316035E0144EAD344C3F3C70777
:101A6000F6B2C3F3C723A4E65E01DC0CC3F3C707D9
:101A7000F6B244F0F004C3F3C7237F22C6E65E014A
:101A8000DC0CC3F3C707F6B244F0F004C3F3C7237A
:101A90007F228EE65D01D80CC3F3C706EDB240F09D
:101AA000F000C3F3C7237F2211E75E01DC0CC3F310
:101AB000C707F6B244F0F004C3F3C7237F22D2E68F
:101AC0005E01DC0CC3F3C707F6B244F0F004C3F3C5
:101AD000C7237F2240E65E01DC0CC3F3C707F6B2E2
:101AE00044F0F004C3F3C7237F2208E61A461C46DD
:101AF0001F461E465DE61A461C461F461E4685E6E4
:101B00001A461C461F461E46ADE61A4618461E4695
:101B10001D46DCE61A461C461F461E461CE61A46B3
:101B20001C461F461E46EAE51446382291E7144635
:101B30003822FBE61446382216E71046382231E7F1
:101B4000144638224CE71446382266E7D0ED017A75
:101B500017EE903AC3F3C752FF2AF0B4C3F316034B
:101B600000F0E680002A78D002F56072DC0C44EACE
:101B700002145E01C3F3C707E4B2C2F30712F6B260
:101B8000C3F3C723F5EEC07AF1EE10FA4FF000056B
:101B900048BF62F07F024B71CA71CE700F718C71B9
:101BA0000D704D708D70D0ED027A17EE903AC3F340
:101BB000C752FF2AC3F3160300F0AF80002A69D092
:101BC00002F56072DC0C44EA02145E01C3F3C7073D
:101BD000E4B2C2F30712F6B2C3F3C723F5EEC07A3C
:101BE000F1EE10FA4FF0000548BF62F07F024B7330
:101BF000CA73CE720F738C730D724D728D72D0EDED
:101C0000037A17EE903AC3F3C752FF2AC3F31603C1
:101C100078D0002A5AD002F56072D80C40EA02103F
:101C20005D01C3F3C706C0B2C2F30712EDB2C3F33E
:101C3000C723F5EEC07AF1EE10FA4FF0000448BF6A
:101C400062F07F02CD740E7588750C744C748C74C0
:101C500018204B75CA75F0BC7047002B7DD05B0017
:101C60001E0200F182804FF46072013A5B0094B270
:101C70001D0222B2F9D52401E4B2C2F30612C3F365
:101C800016035E0144EAD344C3F3C707F6B2C3F3B5
:101C9000C72377E7002B5BD05B001F0268D44FF4AB
:101CA0006072013A5B0094B21E0222B2F9D524019F
:101CB000E4B2C2F30612C3F316035E0144EAD3444E
:101CC000C3F3C707F6B2C3F3C72387E7002B3AD0A5
:101CD0005B001D0246D44FF46072013A5B0090B283
:101CE0001C0202B2F9D50001C0B2C2F30612C3F35E
:101CF00016035D0140EAD340C3F3C706EDB2C3F358
:101D0000C72396E75D01D80CC3F3C706EDB240F0D8
:101D1000F000C3F3C7237F228BE75E01DC0CC3F323
:101D2000C707F6B244F0F004C3F3C7237F2255E798
:101D30005E01DC0CC3F3C707F6B244F0F004C3F352
:101D4000C7237F221EE71A4618461E461D4670E727
:101D50001A461C461F461E4640E71A461C461F46AA
:101D60001E460FE710463822C1E71446382286E7A0
:101D7000144638229FE700BFF0B5632985B003DD24
:101D800090F8F844002C46D0136805460F461046DC
:101D90001B6805F223219847C2B2C0F307215618E9
:101DA00085F81E2247F30722F643FF234FF0FE0E6D
:101DB000FCB285F82222421C85F8206285F81F12A9
:101DC00085F81C3285F81DE285F821420DDB00F212
:101DD0002221294405F22123002201E013F8014FBA
:101DE0008B422244FAD1D343DBB22A1800F1080413
:101DF000B4F5007F82F8233217DC6A68354E136829
:101E00005B68B34205F5077008D1214603F0E4FE94
:101E1000204605B0F0BD204605B0F0BD0146104695
:101E200022469847204605B0F0BD2B4A2B492B6827
:101E3000019203208DF8080003911B68284A934201
:101E40003FD10024382285F8230285F8242285F822
:101E5000254285F8264285F8274205F50A7002F0EA
:101E600063FCFF273D20C223FE26072185F81E02C2
:101E700085F8203285F81F4285F82242224685F8EF
:101E80001C7285F81D6285F8211205F2212305F2E6
:101E90005F2001E013F8011F98420A44FAD1D243AF
:101EA000686885F8602203680A4A5B68934205F512
:101EB00007710BD10846452103F08EFE4FF0FF302D
:101EC000A7E7284601AA07219847F7E74522984740
:101ED000F4E700BFE1090000D0AC000048AF00000B
:101EE000791D000038B5234B234C19682348244D35
:101EF00002F058FB0121052002F070FF2168062046
:101F000002F0E8FD0121082002F068FF296809209D
:101F100002F0E0FD0121192002F060FF01211A20EA
:101F200002F05CFF01211B2002F058FF01211C2060
:101F300002F054FF01211D2002F050FF01211E205C
:101F400002F04CFF0021212002F048FF0021222056
:101F500002F044FF0021232002F040FF2B6822689A
:101F60000849094805F0F2FC01210D20BDE8384080
:101F700002F034BFFC06FF1FD812FF1FFC18FF1F22
:101F80002013FF1F84AF00000419FF1F38B5234B37
:101F9000234C19682348244D02F004FB002105203E
:101FA00002F01CFF2168062002F094FD00210820A9
:101FB00002F014FF2968092002F08CFD002119208D
:101FC00002F00CFF00211A2002F008FF00211B2064
:101FD00002F004FF00211C2002F000FF00211D2060
:101FE00002F0FCFE00211E2002F0F8FE012121205B
:101FF00002F0F4FE0121222002F0F0FE0121232054
:1020000002F0ECFE2B6822680849094805F09EFCA6
:1020100001210D20BDE8384002F0E0BEFC06FF1FA4
:10202000D812FF1FFC18FF1F2013FF1F98AF0000DE
:102030000419FF1F3149324A324B0968324870B5E2
:10204000324E334D002414601C60346002F0AAFA52
:102050002146052002F0C2FE2146062002F03AFD8C
:102060002146082002F0BAFE2146092002F032FD86
:102070000121192002F0B2FE01211A2002F0AEFE69
:1020800001211B2002F0AAFE01211C2002F0A6FE65
:1020900001211D2002F0A2FE01211E2002F09EFE61
:1020A0000121212002F09AFE0121222002F096FE59
:1020B0000121232002F092FE224621462B4615489C
:1020C00002F0BEF92B4622462146134802F0B8F929
:1020D0000D2002F089FEC0F10101C9B20D2002F00D
:1020E0007DFE642002F094FE0C4B0D4A1B681268C2
:1020F0000C490D48BDE8704005F028BC8418FF1F4E
:102100001C13FF1F2C13FF1FFC18FF1FF806FF1FD7
:10211000801A0600F818FF1F1413FF1F2013FF1F5B
:10212000D812FF1F98AF00000419FF1F38B5234BCA
:10213000234C19682348244D02F034FA012105206C
:1021400002F04CFE2168062002F0C4FC01210820A8
:1021500002F044FE2968092002F0BCFC012119208C
:1021600002F03CFE01211A2002F038FE01211B2062
:1021700002F034FE01211C2002F030FE01211D205E
:1021800002F02CFE01211E2002F028FE0021212059
:1021900002F024FE0021222002F020FE0021232054
:1021A00002F01CFE2B6822680849094805F0CEFBA6
:1021B00001210D20BDE8384002F010BEFC06FF1FD3
:1021C000D812FF1FFC18FF1F2013FF1FACAF000029
:1021D0000419FF1F38B5234B234C19682348244D9D
:1021E00002F0E0F90121052002F0F8FD2168062047
:1021F00002F070FC0121082002F0F0FD296809209E
:1022000002F068FC0121192002F0E8FD01211A20EA
:1022100002F0E4FD01211B2002F0E0FD01211C2061
:1022200002F0DCFD01211D2002F0D8FD01211E205D
:1022300002F0D4FD0021212002F0D0FD0021222057
:1022400002F0CCFD0021232002F0C8FD2B6822689B
:102250000849094805F07AFB01210D20BDE8384006
:1022600002F0BCBDFC06FF1FD812FF1FFC18FF1FA9
:102270002013FF1FBCAF00000419FF1FF0B56B480F
:102280006B4B02686B4D6C4F83B040F2EE260192AF
:1022900001996A4A0468196013783BB12B78DB070F
:1022A00004D5036839685B1A0E2B08D803681178C7
:1022B0001B1B002900F0B580B3F5FA6FECD9604D17
:1022C000604A614800246021C5F8E444C5F8E84448
:1022D000C5F8F044C5F8EC4402F09AF8594A5B4856
:1022E000612102F095F805F27C422346114602E096
:1022F0000133192B0AD051F8040F0028F8D103F547
:102300009070534945F8201064334B6051490023C5
:1023100002E00133192B0AD051F8040F0028F8D13C
:1023200003F590704C4945F8201064334B6000234E
:1023300002E00133192B0AD052F8041F0029F8D10A
:1023400003F59071454A45F8212064335360072115
:10235000434802F021F90121052002F053FD01213B
:10236000062002F04FFD0121082002F04BFD012163
:10237000092002F047FD0121212002F043FD012147
:10238000222002F03FFD0121232002F03BFD01212C
:10239000242002F037FD01210D2002F033FD012140
:1023A0001C2002F02FFD01211D2002F02BFD012138
:1023B0001E2002F027FD0121192002F023FD01213A
:1023C0001A2002F01FFD01211B2002F01BFD01213C
:1023D000212002F003FD0121222002F0FFFC012157
:1023E000232002F0FBFC0121242002F0F7FC012154
:1023F000192002F0F3FC01211A2002F0EFFC012168
:102400001B2002F0EBFC01211C2002F0E7FC012163
:102410001D2002F0E3FC01211E2002F0DFFC03B0CE
:10242000F0BDB3427FF638AF49E700BF6819FF1F20
:102430001813FF1F641AFF1FDC1AFF1F4C1AFF1F1F
:102440003013FF1F6C07FF1FF818FF1F1413FF1F27
:102450009C18FF1FAC17FF1F6818FF1FDC12FF1F1F
:10246000FC18FF1F30B51D4C1D4D2368296883B033
:102470000093009A41F28733521A9A4217D8236880
:102480000193019B5B1A312B0BD9164C23680A2B45
:102490001FD013F10A0F14D0142B16D01E2B0AD004
:1024A0000BB103B030BDFFF7C5FD03B030BDFFF782
:1024B000C1FD2968E3E7FFF78DFE2368002BF0D10B
:1024C000F1E7FFF763FD2368E6E7FFF72FFE2368D8
:1024D000E4E7FFF707FD2368DBE700BF6819FF1F8C
:1024E000D412FF1FF806FF1F10B5094C2368672B95
:1024F00008D0682B00D010BD00212420BDE810407A
:1025000002F06CBC0121242002F068FC2368F0E793
:102510006418FF1F2DE9F04F91B0FFF7A3FFC74AE2
:10252000C74B1188C748C84FC84C002201F088FF2C
:10253000C74AC34B1188C748002201F081FFFFF74B
:10254000D3FF3B680593059ED4F8003542F6F82288
:10255000F31A934284BF002384F8F834D4F8E434A7
:10256000BA4A33B1D2F804359E4284BF0023C2F880
:10257000E434DFF8F082B54DA2692AB13B680993D3
:10258000099B9B1B9A4221D3606803685B694345A2
:102590006AD103F0BBFA002869DBD4F8F434D4F82C
:1025A000E424DFF8A8E20344072AC4F8F43449D04D
:1025B0007AB9FF2800F0AC803B680893089B41F291
:1025C00088319B1B8B42D7D98EF8F82411B0BDE817
:1025D000F08F012A00F0A480022A00F0EA80032A8A
:1025E00000F0F280042A00F0F980052A00F005814D
:1025F000062A00F00A81082ABED1974A1A40002311
:102600009A42C4F8E434C0F22F81FF2AB4D1D4F83E
:10261000EC34DFF838A2002B00F086820A2B00F0A1
:102620003081062B00F062810B2B00F02681BC3339
:1026300055F8230000289FD003680AF11C011B688D
:10264000984799E7D5F8F024D5F8E834A918013B64
:1026500001320877C5F8F024C5F8E834002B8BD197
:102660000823C4F8E43487E79847002895DA94F8FB
:10267000F8347648002BA9D0D0F8FC3440F6C412C8
:10268000F31A9342A2D9FF23FE21002280F81C32C4
:1026900080F81D12F72308250A2180F8203280F8DF
:1026A000232280F8242280F8252280F8262280F830
:1026B000272280F8282280F8292280F82A2280F810
:1026C0001F2280F8222280F81E5280F8211200F288
:1026D000212300F22A2001E013F8011F83420A445B
:1026E000FAD1D243606884F82B2203685B4A5B68A6
:1026F000934240F0BE801021594803F06DFA3B68C8
:102700000D930D9BC4F8FC64E36011B0BDE8F08F3D
:10271000012206F11403C5F8E424C5F804352BE7BB
:10272000FE2866D095F8F8240023C5F8E434002A82
:102730007FF422AFFF23FE21082085F81C3285F8A4
:102740001D12F7230A2185F8203285F823220EF284
:10275000212385F8242285F8252285F8262285F86C
:10276000272285F8282285F8292285F82A2285F84B
:102770001F2285F8222285F81E0285F821120EF20A
:102780002A2E01E013F8011F73450A44FAD1D243FF
:10279000606884F82B220368304A5B68934243D117
:1027A00010212F4803F018FA3B680793079BE3605A
:1027B000E2E600220323C5F8E804C5F8F404C5F8EE
:1027C000F024C5F8E434D7E6D5F8E83403EB00206C
:1027D0000423C5F8E804C5F8E434CDE61E4A1A40DF
:1027E000002A25DBFF2A0CBF05230023C4F8E434AC
:1027F000C2E60223C5F8E434BEE60623C5F8EC04BD
:10280000C5F8F404C5F8E434B6E6D5F8EC34D5F8E8
:10281000E82403EB00230721C5F8EC34C5F8E414E1
:10282000002A3FF41DAFA7E610220D499847BBE7E9
:10283000013A62F0FF020132D4E700BF1C13FF1F10
:10284000801A0600F818FF1F6819FF1F3013FF1FBA
:102850002C13FF1F1413FF1FFF000080E10900006D
:102860004C15FF1FC9070000013A62F0FF02013258
:10287000CBE61022C249984741E7002385F8F83497
:102880007AE63B680A930A9BEA6839680C91BD496D
:10289000286ADFF80CC3DDF830909B1AA1FB031EF9
:1028A0004FEA9E1E4FF47A718444B748EA6901FBEF
:1028B0001E3300FB03CCB34BA3FB093B4FEA9B1B2E
:1028C000013A01FB1B91724400FB11C3CBEB0202E6
:1028D0000AF114010AF110006B612A6101F080FD18
:1028E0003B680B930B9BC5F8003545E6D5F81C906B
:1028F000D5F81035994507D94FEA8901D5F818055B
:1029000004F01AFEC5F81805C4F81095B9F1000FC7
:1029100000F0F880DFF884924FF0040A4FF0000BCB
:1029200099F8221099F8213099F8202099F823E09D
:10293000D4F81805090441EA0323134343EA0E635C
:1029400000EB8B009149C4F81435042201F0ECFE31
:10295000D4F810350BF1010B5B45514609F1040920
:102960000AF1040ADCD801F1080B01F10B0001F1B6
:10297000050E01F1060C01F1070901F1090301F14E
:102980000A020C31CDF804A00090DA460291A4446A
:1029900001989CF81CC0A64420449EF81C10007F9F
:1029A000A1444FEA0C4C4CEA012C99F81CE0D4F8F5
:1029B0001C154CEA000C4CEA0E6989450BD94FEA0C
:1029C0008901D5F824050392019304F0B5FD039A1B
:1029D000019BC5F82405C4F81C95B9F1000F00F05F
:1029E0008E8005EB0A0B4FF0000900969BF81E1035
:1029F0009BF81D309BF81C209BF81FE0D4F82405A1
:102A0000090441EA03231343614943EA0E630B605F
:102A100000EB8900042201F087FED4F81C3509F18F
:102A200001094B4551460BF1040B0AF1040ADDD8AC
:102A3000C81D009E0090D3464B1D8A1D01F1080958
:102A400022442344117F009A187FD4F82835224469
:102A5000A344964609049BF81C209EF81CA041EA5A
:102A600000210A4342EA0A6A9A4507D94FEA8A01D5
:102A7000D5F8300504F060FDC5F83005C4F828A588
:102A8000BAF1000F37D04FF0000BDA4609F11C0104
:102A9000002321449E4611F8012B9A400833202B35
:102AA0004EEA020EF7D109F104008644864509D9A1
:102AB00009F11F03234402460132597803F8011B30
:102AC0009645F9D804EB0E02324982F81BA0431E4A
:102AD000D4F83005A1F5A262134400EB8B00042268
:102AE000C4F82C35F14601F01FFED4F828350BF15F
:102AF000010B5B45CAD8012384F808353CE5DDF8B5
:102B000008909DE70C234FF0080B029304210B2340
:102B10000093DA460A2209234FF007094FF0060C0A
:102B20004FF0050E019132E79B460AF223211A4B22
:102B30000D930DA89146CDF838B0CDF83CB0FDF717
:102B400095FCC2B2C0F307215318DB438AF81E225A
:102B5000FE258AF820320A22431C8AF81C928AF841
:102B600022B28AF81F128AF81D528AF8212222DB2B
:102B700000F2222151445B460AF2212A14E000BFF0
:102B80004C15FF1FD34D621040420F004418FF1F29
:102B90005018FF1F5C18FF1FA0AC00003013FF1F70
:102BA00000CA9A3B1AF8012F8A451344FAD16FEAFA
:102BB00003095FFA89F9231800F10802B2F5007FD2
:102BC00083F82392D14900F347824868036801F5EE
:102BD00007715B6898473B680693CD4F069BE3609F
:102BE00007F164030093A7F5836557F8043F002BB2
:102BF00000F0B88058689A6801680192D3F800B074
:102C00008B6898473B68824658680368DB6898473A
:102C10003B68019AD3F81080B8F1630F814604DD58
:102C200094F8F834002B00F09D80C2F30723584637
:102C300084F8232284F8243204F0C2FE0346020AF8
:102C4000000C4FEA136E594684F8262284F82702B6
:102C50001A46B04884F82532019384F828E201F03E
:102C600063FD504604F0ACFE019B024603F22920AE
:102C700020440633002122FA01FE0831202900F801
:102C800001EBF8D1A44804335146184402EB030A7F
:102C900001F04AFD484604F093FE0AF223228346DF
:102CA000224400232BFA03F10833202B02F8011BE6
:102CB000F8D1994B0AF1040A494603EB0A005A4637
:102CC00001F032FD0BEB0A0000F1040E21185FFA4F
:102CD0008EF9CEF3072C0022022309EB0C0B81F8AE
:102CE000243281F8232281F8252281F826226FEAF6
:102CF0000B0B5FFA88F1FF234FF0FE0A48F3072819
:102D0000BEF1FF3F84F820B284F81E9284F81FC2FF
:102D100084F81C3284F81DA284F8211284F82282DF
:102D20000BDB00F226207D4B284401E013F8011F45
:102D300098420A44FAD1D343DBB204EB0E010EF100
:102D40000802B2F5007F81F8233200F33981686808
:102D5000734903685B688B4240F0E8801146714814
:102D600002F03AFF009B9F427FF43FAFDFF8B8B11B
:102D70000196ABF59C651E4656F8040F002800F03E
:102D8000B48090E80C0000939268D0F808A09047B7
:102D9000814630680268D268904780463068026891
:102DA0005268904763280746009B04DD94F8F82496
:102DB000002A00F09A80C3F30722504684F8233299
:102DC00084F8242204F0FCFD0346020A000C4FEABA
:102DD000136E514684F8262284F827021A464D487D
:102DE00084F82532009384F828E201F09DFC4846DF
:102DF00004F0E6FD009B024603F22920204406333E
:102E0000002122FA01FE0831202900F801EBF8D157
:102E1000414804334946184402EB030901F084FC9D
:102E2000404604F0CDFD09F22322824622440023CD
:102E30002AFA03F10833202B02F8011BF8D1364B94
:102E400009F10409414603EB0900524601F06CFC0C
:102E50000AEB090000F1040E5FFA8EF8CEF3072C9E
:102E600004EB000908EB0C010022C943022389F896
:102E7000243289F8232289F8252289F82622FF2383
:102E80004FF0FE0984F82012BEF1FF3FF9B247F37C
:102E9000072784F81E8284F81FC284F81C3284F845
:102EA0001D9284F8211284F822720BDB00F2262096
:102EB0001A4B284401E013F8011F98420A44FAD142
:102EC000D343DBB204EB0E010EF10802B2F5007F32
:102ED00081F823322DDC6868114903685B688B42F6
:102EE00010D111460F4802F077FE5E457FF444AFE3
:102EF000019EC4F8FC640123C4F8006584F8F8342A
:102F0000FFF764BB07499847EFE700BF3013FF1F87
:102F10004817FF1F5915FF1F5315FF1F5115FF1F9E
:102F2000E10900004C15FF1F1018FF1F4C4998477E
:102F300018E7DFF834E14B4FBEE80F000FC7BEE8DB
:102F40000F000FC7BEE80F000FC79EE80300002365
:102F50004FF0030C4FF0380EFF2285F823C285F89E
:102F600024E24FF0FE0C4FF03D0E85F8253285F837
:102F7000263285F8273287E80300C22085F81C2214
:102F80000722A7F1370185F81F3285F8223207376B
:102F900085F81DC285F81EE285F8200285F82122F9
:102FA00001E011F8012F8F421344FAD1DB4360682E
:102FB00084F8603203682A495B684522984794E7A1
:102FC000DFF8A4C0DFF89CE0BCE80F00AEE80F001B
:102FD000BCE80F00AEE80F00BCE80F00AEE80F0041
:102FE0009CE8030000234FF003084FF0380CFF2249
:102FF00085F8238285F824C24FF0FE084FF03D0C7F
:1030000085F8253285F8263285F827328EE80300C8
:10301000C22085F81C220722AEF1370185F81F3245
:1030200085F822320EF1070E85F81D8285F81EC242
:1030300085F8200285F8212201E011F8012F714561
:103040001344FAD1DB43606884F8603203680449B2
:103050005B684522984785E60846FEF7CDFABAE553
:103060004C15FF1F5815FF1F48AF00002DE9F04F0A
:103070008DB0C84AC84B06920022044600F583660C
:1030800000F27C45ADF81C200B92089309930A933B
:1030900056F8043F002B00F0C28058681F68016892
:1030A0009A6808978B68ADF81C2098473368099098
:1030B00058680368DB689847236831680A904FF4C2
:1030C00000721B68D1F810800B92B44A934282467A
:1030D00040F08C81B8F1630F04DD94F8F834002BD4
:1030E00000F09D80BDF81C30DDF8209084F823327C
:1030F0001B0A84F82432484604F062FC07463B0E63
:103100003A0C000A494684F8283284F8257284F87B
:10311000260284F8272204F229203A4601F004FB13
:10312000DDF824B0584604F04BFC04F22329791D45
:10313000024606374944002322FA03F00833202BC5
:1031400001F8010FF8D10437594609EB070017447D
:1031500001F0EAFA504604F033FC09EB070383461A
:1031600000222BFA02F10832202A03F8011BF8D1C1
:103170000437514609EB07005A4601F0D5FA0BEB2C
:1031800007031F1D09EB03015FFA87FAC7F3072C3A
:1031900000220AEB0C0E4FF0020B09F803206FEA35
:1031A0000E0E8A70CA7081F801B0FF205FFA88F1B4
:1031B0004FF0FE0948F30728B7F1FF3F84F820E2FB
:1031C00084F81EA284F81FC284F81C0284F81D92A1
:1031D00084F8211284F82282C0F2B48103F22623FB
:1031E000E01804F2212301E013F8011F98420A4479
:1031F000FAD1D243D2B2E31907F10801B1F5007F49
:1032000083F8232200F306816768654A3B685B68A0
:10321000934204F5077040F0F38002F0DDFCAE420B
:103220007FF436AFDFF8749104F59C6855F8040F0D
:10323000002800F0D2808168036842680891ADF8E8
:103240001C209B6898472B6809901A681846D36819
:1032500098472B6821680A901A680E6852684FF4E4
:10326000007118460B9190474E45074640F0C380C9
:10327000632804DD94F8F834002B00F0AE80BDF82C
:103280001C30089E84F823321B0A84F8243230460E
:1032900004F096FB82464FEA1A634FEA1A42000A8C
:1032A000314684F8283284F825A284F8260284F86E
:1032B000272204F22920524601F036FA0999019199
:1032C000084604F07DFB04F223260AF10502019969
:1032D00083460AF1060A324400232BFA03F008332E
:1032E000202B02F8010FF8D10AF1040A5A4606EB26
:1032F0000A0001F019FA0A990191084604F060FBEE
:10330000D3440199824606EB0B0300222AFA02F00D
:103310000832202A03F8010BF8D10BF1040B06EB5D
:103320000B00524601F000FA0AEB0B031A1D0B9931
:10333000F1545FFA82FCC2F3072E1E440CEB0E0020
:103340004FEA112B4FEA114AC043090E86F801B02B
:1033500086F802A0F1704FF0FF0BF9B24FF0FE0AB1
:1033600047F3072784F82002501C84F81EC284F813
:103370001FE284F81CB284F81DA284F8211284F89C
:10338000227218DB03F22623E618002004F2212320
:103390000AE000BFB8AC000080AF0000791D00005B
:1033A000E109000013F8011FB3420844FAD16FEAA3
:1033B000000B5FFA8BFBA31802F10801B1F5007F47
:1033C00083F823B271DC6668654A33685B689342B0
:1033D00004F5077019D102F0FFFBA8457FF426AF72
:1033E000012384F8F8340DB0BDE8F08F414606AAF9
:1033F0002046984713E7014606AA2046B047ECE767
:103400000A4601463846984709E70A4601463046CB
:103410009847E2E7534A03920321534A23680592EF
:103420008DF810101B68514A934240F086800027A7
:10343000382284F8231284F824224B4984F8257218
:1034400084F8267284F8277204F50A7001F06CF98A
:10345000FF213D20C2234FF0FE0E84F81C120721ED
:1034600084F81E0284F8203284F81F7284F82272D5
:103470003A4684F81DE284F8211204F2212304F272
:103480005F2001E013F8011F98420A44FAD1D243A9
:10349000606884F860220368314A5B68934204F5EF
:1034A000077159D108464521B7E62E4A03920321F8
:1034B00023682D4A05928DF810101B684B4546D1A4
:1034C0000026382284F8231284F82422264984F81E
:1034D000256284F8266284F8276204F50A7001F0F8
:1034E00023F9FF213D20C223FE2784F81C12072167
:1034F00084F81E0284F8203284F81F6284F8226265
:10350000324684F81D7284F8211204F2212304F259
:103510005F2001E013F8011F83420A44FAD1D2432D
:10352000606884F8602203680D4A5B68934204F582
:10353000077109D1084645214DE703AA0721204616
:1035400098476CE6024656E64522984745E703AAA7
:1035500007212046984740E7452298475FE600BF8D
:10356000E1090000D0AC000048AF0000791D000068
:103570002DE9F04FBB4E93B033680693069DD0F80B
:10358000003542F6F822EB1A934284BF002380F8FC
:10359000F834D0F8E434044633B1D0F80435AB4203
:1035A0003CBF0023C0F8E434AF4FDFF8D092A269EB
:1035B00032B133680793079B5B1B9A42C0F01B81B3
:1035C000606803685B69BB4266D102F09FFA00281D
:1035D00065DBD4F8F434D4F8E4240344072AC4F8AF
:1035E000F43447D082B9FF2869D033680893089B28
:1035F00041F288315B1B8B42D9D984F8F8246FF0F3
:10360000010013B0BDE8F08F012A60D0022A00F05B
:10361000B680032A00F0BE80042A00F0C580052A87
:1036200000F0D280062A00F0D780082ABFD18F4A46
:103630001A4000239A42C4F8E434C0F24D81FF2AB4
:10364000B5D1D4F8EC34002B00F0D0820A2B00F076
:103650007A82062B00F053810B2B00F04281BC33A1
:1036600054F823000028A2D0036804F11C011B6851
:1036700098479CE7D4F8F034E2180133C4F8F034EA
:103680001077D4F8E834013BC4F8E834002B8ED12D
:103690000823C4F8E4348AE79847002899DA94F8B4
:1036A000F8040028ADD0D4F8FC3440F6C412EB1A6C
:1036B000934200F2A580002013B0BDE8F08F0122F4
:1036C00005F11403C4F8E424C4F804356FE7FE28B8
:1036D00076D094F8F8240023C4F8E434002A7FF468
:1036E00066AF634923680F911B68624910928B4251
:1036F000119240F0E780FF210820F7234FF0FE0EE3
:1037000084F81C120A2184F81E0284F8203284F8FE
:10371000232284F8242284F8252284F8262284F89F
:10372000272284F8282284F8292284F82A2284F87F
:103730001F2284F8222284F81DE284F8211204F268
:10374000212304F22A2001E013F8011F98420A44C1
:10375000FAD1D243D4F804E084F82B22DEF800300A
:10376000454A5B68934204F5077040F0B080102131
:1037700002F032FA33680993099BE36017E70022ED
:103780000323C4F8E804C4F8F404C4F8F024C4F82B
:10379000E4340CE7D4F8E83403EB00200423C4F845
:1037A000E804C4F8E43402E7304A1A40002AC0F2C0
:1037B0008480FF2A0CBF05230023C4F8E434F6E616
:1037C0000223C4F8E434F2E60623C4F8EC04C4F897
:1037D000F404C4F8E434EAE6D4F8EC34D4F8E82489
:1037E00003EB00230721C4F8EC34C4F8E414002AE6
:1037F0003FF44EAFDBE66FF0010013B0BDE8F08F91
:103800001B4A23680F921B681A4900228B421092B0
:1038100011926AD1FF210820F723FE2784F81C1299
:103820000A2184F81E0284F8203284F8232284F8C6
:10383000242284F8252284F8262284F8272284F87A
:10384000282284F8292284F82A2284F81F2284F866
:10385000222284F81D7284F8211204F2212304F23A
:103860002A200FE06819FF1FC9070000FF00008031
:10387000A0AC0000791D0000E109000040420F00EB
:1038800013F8011F83420A44FAD1D243676884F8CF
:103890002B223B68D24A5B68934204F5077029D11A
:1038A000102102F099F933680B930B9BC4F8FC5478
:1038B0000020E36013B0BDE8F08F013A62F0FF0230
:1038C000013276E70FAA0A212046984752E70146BF
:1038D0001022704698474DE7013A62F0FF0201322C
:1038E000ADE6002384F8F83461E60FAA0A212046E9
:1038F0009847D8E70146102238469847D3E7227FF9
:10390000637F94F81E80E17F42EA032343EA084381
:10391000D4F8102543EA0168904504F11C0B07D93F
:103920004FEA8801D4F8180503F006FEC4F818051C
:10393000C4F81085B8F1000F00F0738104F214533D
:10394000019300230295D84625464FF0040A1C46F1
:1039500098F8062098F8050098F8041098F807E001
:10396000120442EA00220A43D5F81805019942EAF6
:103970000E62C5F8142500EB8400042200F0D4FE8A
:10398000D5F810250134A242504608F104080AF186
:10399000040ADDD800F10901019100F10B012C4668
:1039A00000F10802029D029100F10C01CDF80CA07B
:1039B000134600F1050E00F1060C00F1070800F1B6
:1039C0000A0A04911BF80C0003991BF80EE01BF87F
:1039D00001C01BF80880D4F81C15000440EA0E2032
:1039E00040EA0C0C4CEA086888450BD94FEA88017C
:1039F000D4F824050593039203F09EFD059B039ADA
:103A0000C4F82405C4F81C85B8F1000F00F0068145
:103A100004F5A462019204F20C5203950BEB030A25
:103A200025464FF0000802921C469AF802009AF8C8
:103A300001209AF800109AF803E0029B000440EA83
:103A400002220A43D5F82405019942EA0E625A611E
:103A500000EB8800042200F067FED5F81C2508F171
:103A60000108424521460AF1040A04F10404DCD8A5
:103A700023461A464B1D2C460193039DCB1D01F195
:103A8000060A029301F10808019B1BF80A001BF8C3
:103A900003101BF80230029A00041BF802A0D4F8AD
:103AA000282540EA01210B4343EA0A6A924507D9D7
:103AB0004FEA8A01D4F8300503F03EFDC4F8300522
:103AC000C4F828A5BAF1000F39D004F22C534FF0F6
:103AD000000A019300239E460BEB080111F8012B0D
:103AE0009A400833202B4EEA020EF7D108F1040168
:103AF0008E4471450AD208F103035B440A46013241
:103B000013F8010F03F8010C7245F8D30BEB0E020A
:103B10004B1E4FF0000102F8011CD4F8300501994A
:103B20005B44C4F82C3500EB8A000422F04600F018
:103B3000FBFDD4F828350AF1010A5345CAD8012300
:103B400084F8083533E533680C930C9894F82020FA
:103B500094F82110336894F81D8094F81CA00E93FB
:103B6000E36894F81EE094F81FB042EA012C94F840
:103B700022101C4AC01A4AEA082394F823A0A2FB88
:103B800000824CEA014143EA0E4EDFF85C800E9B56
:103B900041EA0A6A4EEA0B61D04401F1FF3A114949
:103BA0004FF47A7CA1FB031E92090CFB12004FEA32
:103BB0009E1E09FB00800CFB1E332146524409FB6C
:103BC0001303CEEB0202226104F1100041F8143F0E
:103BD00000F006FC33680D930D9BC4F80035E6E455
:103BE000E1090000D34D621000CA9A3B22681649D1
:103BF0000F91109311930A21136820460FAA98473A
:103C000033680A930A9BE3602046FFF72FFAC4F853
:103C1000FC54C4F800554FF0FF30F2E4DDF810809A
:103C200032E70C2104910B21029109210822019114
:103C3000042113464FF00A0A4FF007084FF0060C14
:103C40004FF0050E0391BDE6A0AC0000F8B500F002
:103C50003FFE5248524C00F0D7FB524800F0D4FBD4
:103C6000514800F0D1FB514800F0CCF8504B236094
:103C700000254FF461434FF400774E4AA360294674
:103C8000626004F11C003A46E56025616561A5614A
:103C900003F000FC3A462946642704F5077003F058
:103CA000F9FB29463A4604F21C4003F0F3FB29468F
:103CB0003A4604F5906003F0EDFB04F5A46300269A
:103CC0003D4AC4F81055C4F81455C4F81855C4F842
:103CD0001C55C4F82455C4F82855C4F82C55C4F80C
:103CE0003055C4F80C251E603448C4F8E454C4F8B8
:103CF000E854C4F8EC54C4F8F054C4F8F45484F80C
:103D0000F854C4F8FC54C4F80055C4F8045584F8B9
:103D1000085500F0C1FB2A492A48DFF8E0E02A4FA5
:103D20002A4C8E60CE600E618E61CE610E620F6095
:103D3000486048612649CEF8001026498EF80450A4
:103D400025612160244D2549254AE5606161254DA5
:103D5000254BA5600121A161244D254CDFF8A0E091
:103D60009560D760106156619661D66110625662A7
:103D70009662D6625163C2F830E014601D4D1E4A4F
:103D80001C60DF6018615E619E61DE6118625E62C8
:103D90009E62DE6259631D639A60F8BD9818FF1F2A
:103DA0003013FF1FF818FF1F1413FF1F8818FF1F81
:103DB00060AD00005408FF1FE8AC0000FC18FF1FB6
:103DC000D418FF1F00AD000018AD00006818FF1FD9
:103DD00030AD00008CAD000048AD0000450700008C
:103DE0009C18FF1FE4AF0000DC12FF1FCCAF0000E7
:103DF00074AD000051070000F4AF00002413FF1F52
:103E0000CD0600000022802101810271C28070472E
:103E100090F8383090F839209A4205D95A1C03445A
:103E200080F83820187E70474FF0FF30704700BF91
:103E300070B5044640681E4603685B68154698479F
:103E4000854201D0002070BD3146606800F02AFA3A
:103E5000B0FA80F0400970BD30B40025202405720E
:103E6000C4600170426030BC704700BF037A10B577
:103E7000044683B1227863680121520083F83B2015
:103E800083F85E1083F85D10606800F00BFAB0FAFA
:103E900080F0400910BD012100F004F80028E9D1AC
:103EA00010BD00BF38B5044640680D4600F086F8E6
:103EB0000120207205B938BD2046BDE83840FFF723
:103EC000D5BF00BF2DE9F041079EC468DDF818E0BA
:103ED0009519A54219D815460278984643680F46A9
:103EE00052000121044683F83B2083F85E1083F8DA
:103EF0005D106EB1BEF1000F0AD0406803687146D4
:103F00005B6832469847864202D00020BDE8F081C7
:103F100043462A4639462046BDE8F041FFF788BFB0
:103F200008B5406800F094F8012008BD00207047F3
:103F300090F8392090F83800101A704790F838300F
:103F400090F839209A4286BF1B18187E4FF0FF3038
:103F5000704700BF704700BF38B50546B0F85E0037
:103F600090B195F85D301446C3F1210294420CD80B
:103F700005F13B001844224600F0D6FB95F85D3071
:103F8000234485F85D30204638BD01201446287151
:103F9000EEE700BFB0F85E306BB190F85D30202BDB
:103FA00007D8C218013380F85D30012082F83B1039
:103FB0007047012303710020704700BF002342694E
:103FC00080F8383080F8393080F85C3080F85D3027
:103FD00080F85E3080F85F3006CA30B40D6804693E
:103FE00043662A4383660A60A370426990F8613091
:103FF0001649146813441D7A5B7B01EBC5051B024F
:104000006D6803F4E06343F064032B6090F8623062
:1040100013449D7CDB7D01EBC5011B02496803F461
:10402000E06343F064030B6021685368194205D0D4
:1040300003692C225A70036904229A7103692022B1
:104040005A71036980229A7030BC7047B8B0000082
:1040500043690CCB12681A420CD0094B99420AD919
:10406000084B9942036994BF1C2212225A700369BB
:1040700004229A71704703692C225A70F7E700BF37
:104080007F1A06003F420F0038B50269D478E4B2C7
:10409000E106054624D51023D37063061FD504F02E
:1040A000040404F0FF03002C5AD042496A6E002336
:1040B0000B7085F85D30002A66D0904795F85D302A
:1040C000002B61D02B69D0229A702B6995F83B2088
:1040D0001A712B69012285F85C200222DA7038BD42
:1040E00004F0400303F0FF00002BD8D19379DBB23A
:1040F00003F0600160294ED0937803F0100303F0C1
:10410000FF01B3B114F0010437D195F85C3095F894
:104110005D1099424BD9591C2B4485F85C1093F8DB
:104120003B3013712B69D0229A702B690222DA700E
:10413000D5E785F86010937943F0200393712B69DC
:1041400095F839101A791F29D2B2C6D819480078C3
:104150000028C2D06818013185F839100276BCE712
:104160002A6985F83930C02393702B69114A19796F
:10417000012111700222DA70B1E7C02393702B691C
:104180001A790222DA70AAE70122002385F85D205D
:1041900085F83B3096E703F0DF039371AB6E23B1F4
:1041A00085F8380095F8390098472A69A4E7147112
:1041B000B8E700BF3619FF1F2DE9F047374FDFF88A
:1041C000E0903B68026982B006460093DDF800800B
:1041D0000021C825D3789B065BD53B680193019BE2
:1041E000C8EB03030F2BF5D949B1102BF2D00020F7
:1041F0009070336980229A7002B0BDE8F0877269CE
:1042000096F8613013440521187A00F0FBFD7269BD
:1042100096F861301344012193F812A0504600F043
:10422000F1FD09240021504600F0D8FD2B46013B4A
:10423000FDD10121504600F0D1FD2B46013BFDD1BF
:10424000013CEFD1706996F8611001444FF4C872D7
:104250000C7A4B7B09EBC4011B02496803F4E06351
:1042600043F064030B6096F862300344997CDB7D75
:1042700009EBC1011B02496803F4E06343F06403E6
:104280000B60013AFDD13269D3789B064FF00101F2
:10429000A3D4012002B0BDE8F08700BF6819FF1F5A
:1042A000B8B00000F0B503691222DA7002699378A1
:1042B00003F0200385B004460D46002B5ED0B423E6
:1042C00093703C4922690B680093009E05E00B68DF
:1042D0000193019B9B1B042B42D8D37803F020034E
:1042E00003F0FF00002BF2D094F85D30002B31D0AA
:1042F0004FF0000E4FF0020C04EB0E0393F83B302E
:1043000013710B680393039F206907E09B060DD58B
:104310000B680293029BDB1B052B28D8C378DBB20A
:1043200003F0020202F0FF06002AEFD080F803C07B
:104330002669F378DBB2DF0632462DD49F062BD5F3
:10434000DB0731D40EF1010E94F85D305FFA8EFE7A
:104350007345D1D800201DBB002384F85E3004E0F3
:104360009070236980229A70042005B0F0BD867099
:104370002369802204209A7005B0F0BD03F0FF0687
:10438000FFF71AFF10B9042005B0F0BD236984F8C7
:104390005F60B0229A7094E78023B3700420DAE75C
:1043A00026698023B370D7E7BEF1000F0CBF02204F
:1043B0000320F6E76819FF1F0148FFF765BE00BF3D
:1043C0006C07FF1F0148FFF75FBE00BFD807FF1F44
:1043D0000148FFF759BE00BF0007FF1F00F078BA81
:1043E00070B40D68064B0468064E6A0AA3FB0232DD
:1043F000D3091C4406FB135304600B6070BC704768
:10440000834B040000CA9A3B00220260704700BF41
:10441000F8B5054600680E46174610B1102101F0A8
:1044200015FD102001F010FD314604463A46FFF715
:1044300013FD2C6020460121BDE8F840FFF732BD96
:1044400070B5054684B00C46164619460068FFF75D
:1044500067FDD6B160238DF80C30002328680193E6
:104460000093260901232401032203A98DF80E409D
:104470008DF80D60FFF726FD044618B12868054940
:10448000FFF74EFD204604B070BD40238DF80C3080
:10449000E3E700BFA086010070B40F4E002335880B
:1044A00003710C21012215424FEA42040AD003791C
:1044B000013903F10103A2B20371F4D1FF230371A7
:1044C00070BC704705490B88154323EA020235800A
:1044D0000A8070BC704700BF4019FF1F3C19FF1FC6
:1044E000F8B504790B2C01D92046F8BD0646CDB2AB
:1044F000284601211F46144600F084FC1B483279EF
:104500001B4B01889D54012393400B4319490380A1
:104510000B681948C4EB0414C7EB071745F2E475A0
:1045200013F480033480778020F8125016D10A6883
:10453000124D1348DFF85CE0124F134C42F4800236
:104540000A604FF6FF722A601049CEF8003042F63A
:10455000A27520223B600560016022700C4B4FF475
:1045600080121A6034792046F8BD00BF3C19FF1F45
:104570005C19FF1F3C8004404419FF1F0460034086
:10458000006003400C60034034E400E0A22F01000F
:1045900004E100E0086003404FF416634FF4087232
:1045A000FFF79EBF02790B2A21D8B1F5087F1FDAE9
:1045B00010B44388048821EAE171B429A3EB040311
:1045C000A8BFB421002B03FB01F122DB184801F145
:1045D0005A0380FB03011944D817C0EBE111002BEB
:1045E0000C4423DB134B23F812405DF8044B704757
:1045F0000388C1EB0111994203DA0E4921F8123008
:10460000704743888B42A8BF0B460A4921F81230F5
:104610007047074B5A3983FB01030B44C817C0EBA3
:10462000E31300291C44DDDB0134DBE7013CD9E75F
:10463000B7600BB64419FF1FF8B5324E324D96F9EC
:1046400000202B881341DC0753D4304C94F9003000
:104650000B2B0EDC298841FA03F2D00702D52EE09D
:10466000D2072BD401335BB20C2B41FA03F2F7D102
:10467000237027480268C2F5922101F5787140F253
:10468000DB53994217DD4EF660238B42A8BF0B46E1
:104690001A44204902600E681F4D204A1C4F3344C3
:1046A00042F6A3760B602E600368934202D9002382
:1046B0003B602370F8BD40F2DC53E9E72370184AF1
:1046C0000121D05C00F08AFB94F90030104A1549B2
:1046D000104831F813501168337029441160026892
:1046E0000D492A44013342F6A37502600D60237020
:1046F000F8BD0B4B0021985C00F070FB0C2333706D
:10470000A3E700BF4408FF1F3C19FF1F3E19FF1F0E
:104710003819FF1F0C60034000600340DF93040062
:104720005C19FF1F4419FF1F01B441EA000313F095
:1047300003036FD1403A41D351F8043B40F8043BA6
:1047400051F8043B40F8043B51F8043B40F8043B6B
:1047500051F8043B40F8043B51F8043B40F8043B5B
:1047600051F8043B40F8043B51F8043B40F8043B4B
:1047700051F8043B40F8043B51F8043B40F8043B3B
:1047800051F8043B40F8043B51F8043B40F8043B2B
:1047900051F8043B40F8043B51F8043B40F8043B1B
:1047A00051F8043B40F8043B51F8043B40F8043B0B
:1047B00051F8043B40F8043B403ABDD2303211D3AB
:1047C00051F8043B40F8043B51F8043B40F8043BEB
:1047D00051F8043B40F8043B51F8043B40F8043BDB
:1047E000103AEDD20C3205D351F8043B40F8043BAB
:1047F000043AF9D204320AD0D2071CBF11F8013BA7
:1048000000F8013B03D30B7803704B78437001BC75
:10481000704700BF0C2A4AD310F0030311D0C3F134
:104820000403D21ADB071CBF11F8013B00F8013B5F
:1048300007D311F8013B00F8013B11F8013B00F8E8
:10484000013B11F003033FF475AF30B4043AC91AC9
:10485000C3F1040C51F8044B022B19D0032B0BD0DD
:10486000240A51F8043B1D0644EA050440F8044BB1
:104870001C46043AF4D216E0240E51F8043B1D0203
:1048800044EA050440F8044B1C46043AF4D20AE01A
:10489000240C51F8043B1D0444EA050440F8044B81
:1048A0001C46043AF4D20432B1EB0C0130BC043A99
:1048B000A0D3013A11F8013B00F8013BF9D20B7883
:1048C00003704B7843708B78837001BC704700BFD6
:1048D000F0B585B0102219496846FFF725FF184A40
:1048E000127891071DD51749174D0A7812F07002FA
:1048F00018BF0A701549164A0346802715480F70DD
:104900000026122405212E700470117072B60D4C11
:1049100043F001032046984762B6237813F07003F2
:1049200009D10D4B064901E0013B02D00A78D207BC
:10493000FAD505B0F0BD237005B0F0BDA8B00000F9
:104940000100024000000240040002400700024053
:104950000A0002400B000240410D030008B5104C54
:1049600008E0236859050DD423681A050FD423687D
:10497000DB0411D423685803F3D500F0E5FB23686A
:104980005905F1D500F00EF823681A05EFD500F0AF
:1049900009F82368DB04EDD500F004F8EAE700BF6E
:1049A0003480044008B5FFF7D9FF00BF014B102247
:1049B0001A80704700200540704700BF094908B5BC
:1049C0000B6830B16A461844A2F50052904202D2F8
:1049D0000860184608BD02F0EDF90C2303604FF0A3
:1049E000FF3008BD4808FF1F10B4114B53F83020AA
:1049F00092F8804234B1012379B182F880305DF8B9
:104A0000044B704703EBC0035B681A6851B922F08E
:104A100002021A605DF8044B704782F800315DF8BD
:104A2000044B704742F003021A605DF8044B704774
:104A3000B8B000001C4A02EBC00301295B6811D02A
:104A400004291BD052F83000002280F8802229B1BE
:104A5000022920D0032922D01A6070474FF48072B7
:104A60001A60704752F830004FF4A27280F880123A
:104A70001A601A6822F020021A60704752F830104B
:104A80004FF4A272012081F880021A601A6842F085
:104A900020021A60704740F203121A6070474FF408
:104AA00081721A60704700BFB8B0000030B4054B87
:104AB000054D064C002210211A602A602060196002
:104AC00030BC704714D0034004D0034000D00340F2
:104AD000704700BF38B5A0F14203012B04461FD92F
:104AE000002975DD904B1B78012505FA03F28A42F7
:104AF00002D83F2827D938BDC21E012A2BD9A0F1E0
:104B00001D02012A73D90E2856D9A4F12302032AC3
:104B100057D9864A126802FB011222FA03F320E0F9
:104B2000814B1B780B2B0AD90C2B1CBF0C3B19415A
:104B3000422C084657D0BDE8384001F09BBAC3F17B
:104B40000C039940F4E72946FFF74EFF2946BDE8DC
:104B50003840FFF76FBF764A126802FB011222FA53
:104B600003F3A21E242A00F2D580DFE812F0CC0065
:104B7000C500BE00B700B000A900A2009B009400D1
:104B8000D300D300D3008D00D300D300D300D300D3
:104B9000D30086007F0078007100D300D300D300DB
:104BA000D300D3006A006300D300D300D300D30046
:104BB0005C0055004E00470044F28412C240D20708
:104BC000A3D55C4A126802FB011222FA03F3C8E77C
:104BD0003F2890D80021FFF707FF20460121BDE8BC
:104BE0003840FFF727BFBDE8384001F025BA524AE8
:104BF000126802FB011222FA03F3B2E74F49504A4E
:104C00000B604FF45173136038BD4E494E4A0B6030
:104C10004FF45173136038BD4C494D4A0B604FF44B
:104C20005173136038BD4B494B4A0B604FF45173BD
:104C3000136038BD49494A4A0B604FF45173136001
:104C400038BD4849484A0B604FF45173136038BD72
:104C50004649474A0B6040F24443136038BD45491A
:104C6000454A0B6040F24443136038BD4349444A0F
:104C70000B6040F24443136038BD4249424A0B6026
:104C800040F24443136038BD4049414A0B6040F252
:104C90004443136038BD3F493F4A0B6040F24443F0
:104CA000136038BD3D493E4A0B6040F244431360F7
:104CB00038BD3C493C4A0B6040F24443136038BD68
:104CC0003A493B4A0B6040F24443136038BD3949CE
:104CD000394A0B6040F24443136038BD3749384AC3
:104CE0000B6040F24443136038BD3649364A0B60CE
:104CF0004FF45173136038BD3449354A0B604FF49B
:104D00005173136038BD3349334A0B6040F244435A
:104D1000136038BD3F2C3FF6EEAE7F29D4BF002193
:104D20000121204657E700BF4C08FF1F08800340C1
:104D30000890034008900B4008800B4048900B40BF
:104D40002CB0044040900B4028B0044038900B40F9
:104D500024B0044030900B4020B0044018800B4039
:104D60004CA0044010800B4048A004401880034031
:104D700008B004401080034004B004404080034069
:104D800018C004403880034014C0044018900B4001
:104D900004C004402880034010B004402080034039
:104DA0000CB0044028900B400CC0044020900B40F5
:104DB00008C004403080034010C0044048800340D5
:104DC0001CC00440189003403490044010900340ED
:104DD0003090044010900B4000C004403F2801D8A0
:104DE000FFF702BE704700BF3F2806D8044B53F8B8
:104DF000303093F80002C0B270470020704700BF07
:104E0000B8B000003F2801D8FFF714BE704700BFBC
:104E10002DE9F843054672B6204F214B214A1B6805
:104E20003C68126862B6520102D5322B88BF013449
:104E300095B3C3F5EA331C4EDFF86490DFF8648065
:104E4000BF334FF47A72A6FB031302FB04F404EBA6
:104E5000931472B6D9F800103A68D8F800E062B638
:104E6000C1F5EA33BF33A6FB03031EF0806FC4EB2A
:104E700093134FF47A7002D0322988BF013200FBBD
:104E80000233B3F57A7F04D3013D05D004F57A747B
:104E9000DFE700F0EBFFDCE7BDE8F8836819FF1FF0
:104EA00018E000E004ED00E089888888F8B53F4B01
:104EB0003F49DFF81CC13F4E3F4ADFF818E13F4D44
:104EC0003F4C404F4FF0006018604FF0805018602A
:104ED0004FF0005018604FF0804018604FF00040D5
:104EE00018600020086028234EF6FF71CCF80010EF
:104EF000CEF8003033600EF5012E13602B60236076
:104F000005F500253B6004F50024B36207F5002792
:104F1000936206F5012602F501220EF1100E05F648
:104F2000E87504F6E87407F57F67103220362B60C9
:104F30002360CEF800303B6013603360224EBB61CB
:104F4000936109223260A7F5002706F58056203FBD
:104F5000083638603160BB60F36047F8042C06F512
:104F6000FD2607F5FE2706F2FC760437306039602F
:104F7000B360FB6046F8042C0836C7F8FC0F06F651
:104F8000FC76124831602B602360026000F0E4FF81
:104F9000FFF79EFD1420FFF73BFF00F00FFD4FF4DD
:104FA0008C70BDE8F840FFF733BF00BF04E100E0BC
:104FB00004800340148003401C800340248003408D
:104FC0002C800340348003400080034000900B405D
:104FD000088003400C800340431E032B14D872B694
:104FE0000A4951F8230068B170B4094C058834F8B7
:104FF0001320466841F82360521B24F8132062B640
:1050000070BC704762B6704700207047C419FF1F1C
:10501000CC1AFF1F013803280BD872B6074B53F880
:10502000203043B100205B680130002BFBD162B619
:105030007047002070471846F9E700BF181AFF1F95
:10504000F0B472B61A491B4E012311F8014B194FE7
:105050009A00240742F0010505D556F8324064B1A4
:1050600056F83520BAB10133052BEED162B6124B9A
:1050700000221A70F0BC00F023BD0F4C0F4D2178B8
:1050800007EB4313083001395860217047F832505C
:1050900062B6F0BC7047084A0949137807EBC504AB
:1050A0000830013B6060137047F8351062B6F0E7D6
:1050B000E0B200000000FF1F411AFF1F88004000FF
:1050C000C8004000431E032B1DD81B4A400140F07E
:1050D000100030B4104472B6184CE25C032A1BD89E
:1050E000DFE802F00212151703220D88E25410F0D7
:1050F000080F14BFC823882343EA054308314160E1
:10510000036062B630BC704708300222EDE705222A
:10511000EBE708300422E8E7094A52F8230038B1E7
:10512000084A52F82300416042F8231062B6E9E7CA
:1051300042F82310034AF7E70000FF1F501AFF1F31
:10514000181AFF1F281AFF1F2DE9F04FDFF814B3BC
:10515000DFF814A387B044E0AD4F4FEA930807EBA4
:10516000C809013ED9F8042003F00803F6B2A2F101
:10517000080003F0FF04002B40F0038157F838309B
:105180001B0C99B222F8081C002B00F0F180A14BF7
:1051900022F8064C42F8044C53F82620002A00F06E
:1051A0006C819D4D55F8263058609C4C45F8260082
:1051B00034F81630194424F8161000F061FC002869
:1051C00000F05481964A974B19F0080F00F108003F
:1051D00018BF1346C9F8040047F8383008238BF885
:1051E00000309BF80040E4B260071BD58E4B1B7863
:1051F000ABB18E490A7802F0FF032AB1013BDBB262
:105200000B70002B00F0B58389490A7802F0FF0388
:105210002AB1013BDBB20B70002B00F0F6800423B7
:105220008BF8003004F0080303F0FF02002B00F0BD
:10523000D5809AF80030DBB21E098DD19C08744FDE
:1052400057F8342007EBC401C2F38302013A4968DE
:105250000C2A7ED8DFE802F081817D7D7D7D7D7D19
:10526000427D7D7D07000868724B734D01936C4B46
:105270004A68724E47F8343081B240F281646D4B17
:105280006A60286000220120A1423A611A60BA6176
:10529000307000F2F680B1F5D06F80F0E882B1F5A1
:1052A000817F00F0D38200F2D881802900F04D8107
:1052B000822940F09282A988614B01F07F01042984
:1052C00000F28C825F4C89000B44227062701A7865
:1052D000930740F13883207002203AE1554B019347
:1052E0001A6862B3584B5949544E18880C7896F88E
:1052F00000E04028054684F0010C28BF402544F01A
:105300000204BEF1000F81F800C0A0EB050007EB1E
:10531000C40C0CBF8821C82180B28EF0010E41EA76
:105320000541CCF80420188086F800E02A4447F8AC
:10533000341010B9402D18BF0022019B1A603E4B5B
:105340001A88B2F5A06F04D100219A785970404BA9
:105350001A70404A0123137040E7374A158842F219
:105360002100854200F052812D4A47F83420F0E7B1
:105370002B4A2C4B19F0080F18BF134647F838304A
:105380002CE700F09DFB344A344952F82630002BBC
:1053900000F02D8158688C5D42F8260003F1080268
:1053A000C9F80420032C05D8DFE804F0120F150219
:1053B00004228A551A8819F0080F0CBF8823C823C5
:1053C00043EA024347F8383008E702228A55F1E7FA
:1053D00003228A55EEE705228A55EBE7E00700F144
:1053E0007881210600F1A281A20706D51C4A1D4939
:1053F00013780220DBB213700870E30602D5194B54
:1054000010221A7007B0BDE8F08F00F0C5FC06E767
:105410000000FF1FC419FF1F7019FF1FCC1AFF1FC8
:10542000C8004000880040004C1AFF1FD519FF1F1C
:10543000541AFF1F6C19FF1F381AFF1FD419FF1FC2
:10544000C0200740441AFF1F8019FF1F401AFF1F8A
:105450009820074094200740181AFF1F501AFF1F7A
:10546000882007408020074090200740B74A47F82F
:105470003800137801331370B0E643F82600B44DBA
:1054800093E642F22104A14200F0AD8000F20E81C9
:10549000B1F5086F00F05481B1F5106F40F09D81B7
:1054A000AC4AA9781170AC4D042402E00134142CEC
:1054B0000CD057F834301906F8D505EBC403013485
:1054C0005868083800F0FCFA142CF2D1A349A44B18
:1054D000A44A0291A449A54C9D4D039405964FF012
:1054E000000988461C4616460495206828B1456880
:1054F00000F0E6FA2846002DF9D100232360049B32
:1055000030681A46002342F8293028B1456800F077
:10551000D7FA2846002DF9D100223260029A98F875
:1055200000301146002241F8042B039A0291023BFD
:105530004FF0000122F81910032B00F2B481DFE8CC
:1055400013F0E201AE01E201AE01894C02202270AB
:105550006270EA88824280F00D8286490D78402A86
:1055600045F0020E944607EBCE0028BF4FF0400CEA
:1055700004EB0C0344600293CCEB02004FEA0C48AE
:105580004FF001090022C82444EA080385F0010411
:1055900047F83E3032700C70DFF8BCE1764BDFF834
:1055A000D481002840F02081BCF1400F1BD144F091
:1055B000020407EBC403029FDFF89CE15F60002A4E
:1055C00040F02781020442F0880286F800900D70B6
:1055D00007444EF834203B46402804D10020674A57
:1055E000019910800B60664A01231370B1E68B5D50
:1055F000032B00F2248101A252F823F0DD510000B8
:10560000DD5100002157000027570000928862B941
:105610005C4ACD1D11F8013B02F8013F8D42F9D1E2
:10562000594A1268862A00F0C9805249524E0878B9
:10563000327840F0020580F00100087007EBC501E8
:10564000002A4FF00000486082F001020CBF882160
:10565000C82147F83510327086E640F20232914296
:1056600040F0B080A98801F07F01042900F2B580E4
:105670006A88002A40F0B180444C89000C4481467D
:10568000217841F00201217000200290804684467A
:10569000044638490D7845F0020E07EBCE03B9F108
:1056A000000F5C600CBF8824C8246DE742F22124FF
:1056B000A14240F08E80A988002940F04281344BFD
:1056C000344A354C1B68AD78136081460A46257014
:1056D000DAE72B49204B3148264EDFF8B0C0304D79
:1056E000DFF8D4E02F4F02240C702F4C18605C6060
:1056F00098602E48D8601A619A610D2332702C4C44
:105700008CF800302B4EFF232B7001209F258EF844
:1057100000303A7033702570087007B0BDE8F08F24
:1057200000238B555AE501238B5557E51749224B2A
:1057300080220D2008701A70A2077FF55EAE55E634
:10574000044A0B4C1278227003E700BF411AFF1F76
:105750007019FF1F4C1AFF1F0000FF1F281AFF1FA0
:10576000C419FF1F181AFF1F501AFF1FCC1AFF1F62
:10577000441AFF1F401AFF1FD419FF1F8019FF1F73
:1057800094200740D31AFF1FD41AFF1FC0200740E0
:105790006819FF1FDC1AFF1F641AFF1F88004000F2
:1057A00088200740982007408419FF1FD819FF1F41
:1057B000842007408C20074080200740754A0F2135
:1057C000117032E7B1F5A06F07D100224FF0010947
:1057D0005AE742F221329142F7D06F4B0F221A70F2
:1057E0006E4A01231370B4E540287FF6E0AE44F022
:1057F00002040EEBC401029E4E60AAB183F8009031
:10580000674A88F800503346403840334EF8342019
:10581000E5E6029B86F80090020442F0C8020D7093
:1058200003444EF83420D7E683F80090029B5D4A8B
:1058300088F80050403840334EF83420CFE619F055
:10584000080F0CBF022303238B55C7E4A98801F07E
:105850007F010429C1D86A88002ABED14E4C890034
:105860000C448146217821F0020121700CE74E4A58
:105870005468002CB1D06888B5F804E003E00C321D
:105880005468002CA9D013888342F8D153887345FB
:10589000F5D1000A03280CBF2078108959E64FF093
:1058A000010388F8003009F10109B9F1040F04F18E
:1058B000040406F1040608F101087FF416AE3B4B20
:1058C000059E3B4DDFF8F080002018704FF0010975
:1058D00018F8013B05F8043B1A0719D44FEA89046C
:1058E00044F0020244F00304002347F8323047F842
:1058F0003430304B9D4209F10109E9D196F800900E
:1059000089F00102C0E64FF0000388F80030CAE7D2
:1059100000F0B6F818B307EB49134FEA89040830D2
:105920005860204B47F8343000F0AAF868B144F0D2
:10593000010307EBC30208305060194A47F83320CF
:10594000CEE78146A0E6022003E6184B44F00102B0
:105950001B7847F83200154A01331370C0E7134B28
:10596000124A1B784FEA8904013347F83400137058
:10597000DAE700BE4028844628BF4FF0400C04EB15
:105980000C03CCEB00004FEA0C48029300224FF0CE
:1059900001097EE6D519FF1FC0200740942007406B
:1059A000C800400088004000E4B20000411AFF1F18
:1059B000C4200740D4200740E0B200002DE9F041A8
:1059C00000F09CFB002323491A4601EBC30041F879
:1059D00033200133142B42604FF000041D48F4D1F2
:1059E0001D491E4A0B68DFF88C801D4F1D4D1E4E51
:1059F000DFF884C0DFF884E043F480230B60136891
:105A000043F040731360C0F3072388F8003001F5BA
:105A10002831C0F307433B70000EFF23CC3102F561
:105A2000C922287002F584728CF800300F4D8EF870
:105A300000300F483370012308F8083C70260C70C2
:105A40004FF40014102107F82C3C2E7004601170E4
:105A5000BDE8F0810000FF1F3480044000D8004002
:105A6000B0200740B42007401020074035E400E094
:105A700004E100E09C200740802007408820074088
:105A800072B60D480268B2FA82F30B2B10DC4FF0AD
:105A90000041D94022EA0102026062B6074803EBE6
:105AA000C303DB00C2180021C1501046516070478B
:105AB00062B60020704700BF5008FF1F9803FF1F09
:105AC0000D4B0E4AC31AA2FB03231B090B2B0CD848
:105AD0000B4A127852B972B60A484FF00041026878
